{
  "contractName": "Evidencable",
  "abi": [
    {
      "constant": false,
      "inputs": [],
      "name": "renounceOwnership",
      "outputs": [],
      "payable": false,
      "stateMutability": "nonpayable",
      "type": "function"
    },
    {
      "constant": true,
      "inputs": [],
      "name": "owner",
      "outputs": [
        {
          "name": "",
          "type": "address"
        }
      ],
      "payable": false,
      "stateMutability": "view",
      "type": "function"
    },
    {
      "constant": false,
      "inputs": [
        {
          "name": "_newOwner",
          "type": "address"
        }
      ],
      "name": "transferOwnership",
      "outputs": [],
      "payable": false,
      "stateMutability": "nonpayable",
      "type": "function"
    },
    {
      "anonymous": false,
      "inputs": [
        {
          "indexed": true,
          "name": "previousOwner",
          "type": "address"
        }
      ],
      "name": "OwnershipRenounced",
      "type": "event"
    },
    {
      "anonymous": false,
      "inputs": [
        {
          "indexed": true,
          "name": "previousOwner",
          "type": "address"
        },
        {
          "indexed": true,
          "name": "newOwner",
          "type": "address"
        }
      ],
      "name": "OwnershipTransferred",
      "type": "event"
    },
    {
      "constant": true,
      "inputs": [
        {
          "name": "hash",
          "type": "string"
        }
      ],
      "name": "getEvidenceCount",
      "outputs": [
        {
          "name": "",
          "type": "uint8"
        }
      ],
      "payable": false,
      "stateMutability": "view",
      "type": "function"
    },
    {
      "constant": false,
      "inputs": [
        {
          "name": "hash",
          "type": "string"
        }
      ],
      "name": "addEvidence",
      "outputs": [],
      "payable": false,
      "stateMutability": "nonpayable",
      "type": "function"
    },
    {
      "constant": false,
      "inputs": [
        {
          "name": "provider",
          "type": "address"
        }
      ],
      "name": "addEvidenceProvider",
      "outputs": [],
      "payable": false,
      "stateMutability": "nonpayable",
      "type": "function"
    }
  ],
  "bytecode": "0x6080604052336000806101000a81548173ffffffffffffffffffffffffffffffffffffffff021916908373ffffffffffffffffffffffffffffffffffffffff160217905550610860806100536000396000f300608060405260043610610078576000357c0100000000000000000000000000000000000000000000000000000000900463ffffffff168063144b763a1461007d57806351a94a5f146100c0578063646986fb14610129578063715018a6146101ac5780638da5cb5b146101c3578063f2fde38b1461021a575b600080fd5b34801561008957600080fd5b506100be600480360381019080803573ffffffffffffffffffffffffffffffffffffffff16906020019092919050505061025d565b005b3480156100cc57600080fd5b50610127600480360381019080803590602001908201803590602001908080601f0160208091040260200160405190810160405280939291908181526020018383808284378201915050505050509192919290505050610312565b005b34801561013557600080fd5b50610190600480360381019080803590602001908201803590602001908080601f016020809104026020016040519081016040528093929190818152602001838380828437820191505050505050919291929050505061050e565b604051808260ff1660ff16815260200191505060405180910390f35b3480156101b857600080fd5b506101c1610590565b005b3480156101cf57600080fd5b506101d8610692565b604051808273ffffffffffffffffffffffffffffffffffffffff1673ffffffffffffffffffffffffffffffffffffffff16815260200191505060405180910390f35b34801561022657600080fd5b5061025b600480360381019080803573ffffffffffffffffffffffffffffffffffffffff1690602001909291905050506106b7565b005b6000809054906101000a900473ffffffffffffffffffffffffffffffffffffffff1673ffffffffffffffffffffffffffffffffffffffff163373ffffffffffffffffffffffffffffffffffffffff161415156102b857600080fd5b60018060008373ffffffffffffffffffffffffffffffffffffffff1673ffffffffffffffffffffffffffffffffffffffff16815260200190815260200160002060006101000a81548160ff02191690831515021790555050565b600160003373ffffffffffffffffffffffffffffffffffffffff1673ffffffffffffffffffffffffffffffffffffffff16815260200190815260200160002060009054906101000a900460ff1615156103f9576040517f08c379a000000000000000000000000000000000000000000000000000000000815260040180806020018281038252602a8152602001807f4f6e6c7920726567697374657265642065766964656e63652070726f7669646581526020017f727320616c6c6f7765640000000000000000000000000000000000000000000081525060400191505060405180910390fd5b61048860016002836040518082805190602001908083835b6020831015156104365780518252602082019150602081019050602083039250610411565b6001836020036101000a038019825116818451168082178552505050505050905001915050908152602001604051809103902060009054906101000a900460ff1660ff1661071e90919063ffffffff16565b6002826040518082805190602001908083835b6020831015156104c0578051825260208201915060208101905060208303925061049b565b6001836020036101000a038019825116818451168082178552505050505050905001915050908152602001604051809103902060006101000a81548160ff021916908360ff16021790555050565b60006002826040518082805190602001908083835b6020831015156105485780518252602082019150602081019050602083039250610523565b6001836020036101000a038019825116818451168082178552505050505050905001915050908152602001604051809103902060009054906101000a900460ff169050919050565b6000809054906101000a900473ffffffffffffffffffffffffffffffffffffffff1673ffffffffffffffffffffffffffffffffffffffff163373ffffffffffffffffffffffffffffffffffffffff161415156105eb57600080fd5b6000809054906101000a900473ffffffffffffffffffffffffffffffffffffffff1673ffffffffffffffffffffffffffffffffffffffff167ff8df31144d9c2f0f6b59d69b8b98abd5459d07f2742c4df920b25aae33c6482060405160405180910390a260008060006101000a81548173ffffffffffffffffffffffffffffffffffffffff021916908373ffffffffffffffffffffffffffffffffffffffff160217905550565b6000809054906101000a900473ffffffffffffffffffffffffffffffffffffffff1681565b6000809054906101000a900473ffffffffffffffffffffffffffffffffffffffff1673ffffffffffffffffffffffffffffffffffffffff163373ffffffffffffffffffffffffffffffffffffffff1614151561071257600080fd5b61071b8161073a565b50565b6000818301905082811015151561073157fe5b80905092915050565b600073ffffffffffffffffffffffffffffffffffffffff168173ffffffffffffffffffffffffffffffffffffffff161415151561077657600080fd5b8073ffffffffffffffffffffffffffffffffffffffff166000809054906101000a900473ffffffffffffffffffffffffffffffffffffffff1673ffffffffffffffffffffffffffffffffffffffff167f8be0079c531659141344cd1fd0a4f28419497f9722a3daafe3b4186f6b6457e060405160405180910390a3806000806101000a81548173ffffffffffffffffffffffffffffffffffffffff021916908373ffffffffffffffffffffffffffffffffffffffff160217905550505600a165627a7a72305820e1e0a251e304b74e2fd892c123ed096717aa0821786638766754922262988c610029",
  "source": "pragma solidity ^0.4.24;\n\nimport \"openzeppelin-solidity/contracts/math/SafeMath.sol\";\nimport \"openzeppelin-solidity/contracts/ownership/Ownable.sol\";\n\n\n/// @title Library to implement items that can accumulate evidences\n/// @author Roberto García (http://rhizomik.net/~roberto/)\ncontract Evidencable is Ownable {\n    using SafeMath for uint8;\n\n    mapping(address => bool) private evidenceProviders;\n    mapping(string => uint8) private evidenceCounts;\n\n    /// @dev Modifier controlling that only registered evidence providers are allowed\n    modifier onlyEvidenceProvider() {\n        require(evidenceProviders[msg.sender], \"Only registered evidence providers allowed\");\n        _;\n    }\n\n    /// @notice Get the evidence count for the manifestation with `hash`.\n    /// @param hash Hash of the manifestation content, for instance IPFS Base58 Hash\n    function getEvidenceCount(string hash) public constant returns (uint8) {\n        return evidenceCounts[hash];\n    }\n\n    /// @notice Adds one to the evidence count for the manifestation with `hash`.\n    /// @param hash Hash of the manifestation content, for instance IPFS Base58 Hash\n    function addEvidence(string hash) public onlyEvidenceProvider {\n        evidenceCounts[hash] = uint8(evidenceCounts[hash].add(1));\n    }\n\n    /// @notice Adds an evidence provider `provider` contract that can then call addEvidence(...)\n    /// to add evidences.\n    /// @param provider The address of a contract providing evidences\n    function addEvidenceProvider(address provider) public onlyOwner {\n        evidenceProviders[provider] = true;\n    }\n\n    /// @notice Check if the `self` Evidentiality struct has no evidences yet.\n    /// @dev Used to check if the corresponding item evidences count is 0.\n    /// @param hash Hash of the manifestation content, for instance IPFS Base58 Hash\n    function isUnevidenced(string hash) internal constant returns(bool) {\n        return (evidenceCounts[hash] == 0);\n    }\n}\n",
  "sourcePath": "/Users/roberto/Proyectos/InVID/WP4/copyrightly.eth/contracts/Evidencable.sol",
  "compiler": {
    "name": "solc",
    "version": "0.4.24+commit.e67f0147.Emscripten.clang"
  },
  "schemaVersion": "2.0.1",
  "updatedAt": "2018-08-25T05:47:01.273Z"
}