{
  "contractName": "Initializable",
  "abi": [
    {
      "constant": true,
      "inputs": [],
      "name": "initialized",
      "outputs": [
        {
          "name": "",
          "type": "bool"
        }
      ],
      "payable": false,
      "stateMutability": "view",
      "type": "function"
    }
  ],
  "bytecode": "0x6080604052348015600f57600080fd5b5060ae8061001e6000396000f300608060405260043610603f576000357c0100000000000000000000000000000000000000000000000000000000900463ffffffff168063158ef93e146044575b600080fd5b348015604f57600080fd5b5060566070565b604051808215151515815260200191505060405180910390f35b6000809054906101000a900460ff16815600a165627a7a72305820c3b5d38707e2d515a333b3dbb8de4bca497718581a377a04714fee458ef9fa000029",
  "source": "pragma solidity ^0.4.24;\n\n\n/**\n * @title Initializable\n * @dev Simple helper contract to support initialization outside of the constructor.\n * To use it, replace the constructor with a function that has the\n * `isInitializer` modifier.\n * WARNING: This helper does not support multiple inheritance.\n * WARNING: It is the developer's responsibility to ensure that an initializer\n * is actually called.\n * Use `Migratable` for more complex migration mechanisms.\n */\ncontract Initializable {\n\n  /**\n   * @dev Indicates if the contract has been initialized.\n   */\n  bool public initialized;\n\n  /**\n   * @dev Modifier to use in the initialization function of a contract.\n   */\n  modifier isInitializer() {\n    require(!initialized, \"Contract instance has already been initialized\");\n    _;\n    initialized = true;\n  }\n}\n",
  "sourcePath": "zos-lib/contracts/migrations/Initializable.sol",
  "compiler": {
    "name": "solc",
    "version": "0.4.24+commit.e67f0147.Emscripten.clang"
  },
  "schemaVersion": "2.0.1",
  "updatedAt": "2018-08-16T07:44:50.308Z"
}