{
  "contractName": "Manifestations",
  "abi": [
    {
      "constant": true,
      "inputs": [],
      "name": "initialized",
      "outputs": [
        {
          "name": "",
          "type": "bool"
        }
      ],
      "payable": false,
      "stateMutability": "view",
      "type": "function"
    },
    {
      "constant": true,
      "inputs": [],
      "name": "timeToExpiry",
      "outputs": [
        {
          "name": "",
          "type": "uint32"
        }
      ],
      "payable": false,
      "stateMutability": "view",
      "type": "function"
    },
    {
      "constant": false,
      "inputs": [],
      "name": "unpause",
      "outputs": [],
      "payable": false,
      "stateMutability": "nonpayable",
      "type": "function"
    },
    {
      "constant": true,
      "inputs": [],
      "name": "paused",
      "outputs": [
        {
          "name": "",
          "type": "bool"
        }
      ],
      "payable": false,
      "stateMutability": "view",
      "type": "function"
    },
    {
      "constant": false,
      "inputs": [],
      "name": "renounceOwnership",
      "outputs": [],
      "payable": false,
      "stateMutability": "nonpayable",
      "type": "function"
    },
    {
      "constant": false,
      "inputs": [],
      "name": "pause",
      "outputs": [],
      "payable": false,
      "stateMutability": "nonpayable",
      "type": "function"
    },
    {
      "constant": true,
      "inputs": [],
      "name": "owner",
      "outputs": [
        {
          "name": "",
          "type": "address"
        }
      ],
      "payable": false,
      "stateMutability": "view",
      "type": "function"
    },
    {
      "constant": false,
      "inputs": [
        {
          "name": "_newOwner",
          "type": "address"
        }
      ],
      "name": "transferOwnership",
      "outputs": [],
      "payable": false,
      "stateMutability": "nonpayable",
      "type": "function"
    },
    {
      "inputs": [
        {
          "name": "_timeToExpiry",
          "type": "uint32"
        }
      ],
      "payable": false,
      "stateMutability": "nonpayable",
      "type": "constructor"
    },
    {
      "anonymous": false,
      "inputs": [
        {
          "indexed": false,
          "name": "hash",
          "type": "string"
        },
        {
          "indexed": false,
          "name": "title",
          "type": "string"
        },
        {
          "indexed": true,
          "name": "manifester",
          "type": "address"
        }
      ],
      "name": "ManifestEvent",
      "type": "event"
    },
    {
      "anonymous": false,
      "inputs": [],
      "name": "Pause",
      "type": "event"
    },
    {
      "anonymous": false,
      "inputs": [],
      "name": "Unpause",
      "type": "event"
    },
    {
      "anonymous": false,
      "inputs": [
        {
          "indexed": true,
          "name": "previousOwner",
          "type": "address"
        }
      ],
      "name": "OwnershipRenounced",
      "type": "event"
    },
    {
      "anonymous": false,
      "inputs": [
        {
          "indexed": true,
          "name": "previousOwner",
          "type": "address"
        },
        {
          "indexed": true,
          "name": "newOwner",
          "type": "address"
        }
      ],
      "name": "OwnershipTransferred",
      "type": "event"
    },
    {
      "constant": false,
      "inputs": [
        {
          "name": "_owner",
          "type": "address"
        },
        {
          "name": "_timeToExpiry",
          "type": "uint32"
        }
      ],
      "name": "initialize",
      "outputs": [],
      "payable": false,
      "stateMutability": "nonpayable",
      "type": "function"
    },
    {
      "constant": false,
      "inputs": [
        {
          "name": "hash",
          "type": "string"
        },
        {
          "name": "title",
          "type": "string"
        }
      ],
      "name": "manifestAuthorship",
      "outputs": [],
      "payable": false,
      "stateMutability": "nonpayable",
      "type": "function"
    },
    {
      "constant": false,
      "inputs": [
        {
          "name": "hash",
          "type": "string"
        },
        {
          "name": "title",
          "type": "string"
        },
        {
          "name": "additionalAuthors",
          "type": "address[]"
        }
      ],
      "name": "manifestJointAuthorship",
      "outputs": [],
      "payable": false,
      "stateMutability": "nonpayable",
      "type": "function"
    },
    {
      "constant": true,
      "inputs": [
        {
          "name": "hash",
          "type": "string"
        }
      ],
      "name": "getManifestation",
      "outputs": [
        {
          "name": "",
          "type": "string"
        },
        {
          "name": "",
          "type": "address[]"
        },
        {
          "name": "",
          "type": "uint256"
        },
        {
          "name": "",
          "type": "uint256"
        }
      ],
      "payable": false,
      "stateMutability": "view",
      "type": "function"
    }
  ],
  "bytecode": "0x608060405260008060146101000a81548160ff02191690831515021790555034801561002a57600080fd5b50604051602080611c8583398101806040528101908080519060200190929190505050336000806101000a81548173ffffffffffffffffffffffffffffffffffffffff021916908373ffffffffffffffffffffffffffffffffffffffff16021790555080600060166101000a81548163ffffffff021916908363ffffffff16021790555050611bc7806100be6000396000f3006080604052600436106100ba576000357c0100000000000000000000000000000000000000000000000000000000900463ffffffff168063158ef93e146100bf5780633e84531c146100ee5780633f4ba83a1461012557806347fc89b61461013c5780635c975abb146101eb578063715018a61461021a5780638456cb59146102315780638da5cb5b14610248578063b0594ad51461029f578063bfbc9412146103d7578063c5e4c9f9146104c9578063f2fde38b1461051c575b600080fd5b3480156100cb57600080fd5b506100d461055f565b604051808215151515815260200191505060405180910390f35b3480156100fa57600080fd5b50610103610572565b604051808263ffffffff1663ffffffff16815260200191505060405180910390f35b34801561013157600080fd5b5061013a610588565b005b34801561014857600080fd5b506101e9600480360381019080803590602001908201803590602001908080601f0160208091040260200160405190810160405280939291908181526020018383808284378201915050505050509192919290803590602001908201803590602001908080601f0160208091040260200160405190810160405280939291908181526020018383808284378201915050505050509192919290505050610646565b005b3480156101f757600080fd5b50610200610baf565b604051808215151515815260200191505060405180910390f35b34801561022657600080fd5b5061022f610bc2565b005b34801561023d57600080fd5b50610246610cc4565b005b34801561025457600080fd5b5061025d610d84565b604051808273ffffffffffffffffffffffffffffffffffffffff1673ffffffffffffffffffffffffffffffffffffffff16815260200191505060405180910390f35b3480156102ab57600080fd5b50610306600480360381019080803590602001908201803590602001908080601f0160208091040260200160405190810160405280939291908181526020018383808284378201915050505050509192919290505050610da9565b604051808060200180602001858152602001848152602001838103835287818151815260200191508051906020019080838360005b8381101561035657808201518184015260208101905061033b565b50505050905090810190601f1680156103835780820380516001836020036101000a031916815260200191505b50838103825286818151815260200191508051906020019060200280838360005b838110156103bf5780820151818401526020810190506103a4565b50505050905001965050505050505060405180910390f35b3480156103e357600080fd5b506104c7600480360381019080803590602001908201803590602001908080601f0160208091040260200160405190810160405280939291908181526020018383808284378201915050505050509192919290803590602001908201803590602001908080601f0160208091040260200160405190810160405280939291908181526020018383808284378201915050505050509192919290803590602001908201803590602001908080602002602001604051908101604052809392919081815260200183836020028082843782019150505050505091929192905050506110a2565b005b3480156104d557600080fd5b5061051a600480360381019080803573ffffffffffffffffffffffffffffffffffffffff169060200190929190803563ffffffff16906020019092919050505061173a565b005b34801561052857600080fd5b5061055d600480360381019080803573ffffffffffffffffffffffffffffffffffffffff169060200190929190505050611865565b005b600060159054906101000a900460ff1681565b600060169054906101000a900463ffffffff1681565b6000809054906101000a900473ffffffffffffffffffffffffffffffffffffffff1673ffffffffffffffffffffffffffffffffffffffff163373ffffffffffffffffffffffffffffffffffffffff161415156105e357600080fd5b600060149054906101000a900460ff1615156105fe57600080fd5b60008060146101000a81548160ff0219169083151502179055507f7805862f689e2f13df9f062ff482ad3ad112aca9e0847911ed832e158c525b3360405160405180910390a1565b60608282600081511115156106c3576040517f08c379a00000000000000000000000000000000000000000000000000000000081526004018080602001828103825260138152602001807f41207469746c652069732072657175697265640000000000000000000000000081525060200191505060405180910390fd5b60006001836040518082805190602001908083835b6020831015156106fd57805182526020820191506020810190506020830392506106d8565b6001836020036101000a03801982511681845116808217855250505050505090500191505090815260200160405180910390206001018054905014806107b557506107b46001836040518082805190602001908083835b6020831015156107795780518252602082019150602081019050602083039250610754565b6001836020036101000a03801982511681845116808217855250505050505090500191505090815260200160405180910390206002016118cc565b5b151561084f576040517f08c379a00000000000000000000000000000000000000000000000000000000081526004018080602001828103825260228152602001807f416c7265616479207265676973746572656420616e64206e6f7420657870697281526020017f656400000000000000000000000000000000000000000000000000000000000081525060400191505060405180910390fd5b600060149054906101000a900460ff1615151561086b57600080fd5b600160405190808252806020026020018201604052801561089b5781602001602082028038833980820191505090505b509250338360008151811015156108ae57fe5b9060200190602002019073ffffffffffffffffffffffffffffffffffffffff16908173ffffffffffffffffffffffffffffffffffffffff1681525050826001866040518082805190602001908083835b60208310151561092357805182526020820191506020810190506020830392506108fe565b6001836020036101000a0380198251168184511680821785525050505050509050019150509081526020016040518091039020600101908051906020019061096c929190611a29565b50806001836040518082805190602001908083835b6020831015156109a65780518252602082019150602081019050602083039250610981565b6001836020036101000a038019825116818451168082178552505050505050905001915050908152602001604051809103902060000190805190602001906109ef929190611ab3565b50610a88600060169054906101000a900463ffffffff1663ffffffff166001846040518082805190602001908083835b602083101515610a445780518252602082019150602081019050602083039250610a1f565b6001836020036101000a03801982511681845116808217855250505050505090500191505090815260200160405180910390206002016118eb90919063ffffffff16565b3373ffffffffffffffffffffffffffffffffffffffff167f9221287e8a14b313bd740c10367708dd71a6bd842aaf2848fbee7d4fb4ca329c8383604051808060200180602001838103835285818151815260200191508051906020019080838360005b83811015610b06578082015181840152602081019050610aeb565b50505050905090810190601f168015610b335780820380516001836020036101000a031916815260200191505b50838103825284818151815260200191508051906020019080838360005b83811015610b6c578082015181840152602081019050610b51565b50505050905090810190601f168015610b995780820380516001836020036101000a031916815260200191505b5094505050505060405180910390a25050505050565b600060149054906101000a900460ff1681565b6000809054906101000a900473ffffffffffffffffffffffffffffffffffffffff1673ffffffffffffffffffffffffffffffffffffffff163373ffffffffffffffffffffffffffffffffffffffff16141515610c1d57600080fd5b6000809054906101000a900473ffffffffffffffffffffffffffffffffffffffff1673ffffffffffffffffffffffffffffffffffffffff167ff8df31144d9c2f0f6b59d69b8b98abd5459d07f2742c4df920b25aae33c6482060405160405180910390a260008060006101000a81548173ffffffffffffffffffffffffffffffffffffffff021916908373ffffffffffffffffffffffffffffffffffffffff160217905550565b6000809054906101000a900473ffffffffffffffffffffffffffffffffffffffff1673ffffffffffffffffffffffffffffffffffffffff163373ffffffffffffffffffffffffffffffffffffffff16141515610d1f57600080fd5b600060149054906101000a900460ff16151515610d3b57600080fd5b6001600060146101000a81548160ff0219169083151502179055507f6985a02210a168e66602d3235cb6db0e70f92b3ba4d376a33c0f3d9434bff62560405160405180910390a1565b6000809054906101000a900473ffffffffffffffffffffffffffffffffffffffff1681565b6060806000806001856040518082805190602001908083835b602083101515610de75780518252602082019150602081019050602083039250610dc2565b6001836020036101000a03801982511681845116808217855250505050505090500191505090815260200160405180910390206000016001866040518082805190602001908083835b602083101515610e555780518252602082019150602081019050602083039250610e30565b6001836020036101000a03801982511681845116808217855250505050505090500191505090815260200160405180910390206001016001876040518082805190602001908083835b602083101515610ec35780518252602082019150602081019050602083039250610e9e565b6001836020036101000a0380198251168184511680821785525050505050509050019150509081526020016040518091039020600201600001546001886040518082805190602001908083835b602083101515610f355780518252602082019150602081019050602083039250610f10565b6001836020036101000a038019825116818451168082178552505050505050905001915050908152602001604051809103902060020160010154838054600181600116156101000203166002900480601f0160208091040260200160405190810160405280929190818152602001828054600181600116156101000203166002900480156110045780601f10610fd957610100808354040283529160200191611004565b820191906000526020600020905b815481529060010190602001808311610fe757829003601f168201915b505050505093508280548060200260200160405190810160405280929190818152602001828054801561108c57602002820191906000526020600020905b8160009054906101000a900473ffffffffffffffffffffffffffffffffffffffff1673ffffffffffffffffffffffffffffffffffffffff1681526020019060010190808311611042575b5050505050925093509350935093509193509193565b60606000848460008151111515611121576040517f08c379a00000000000000000000000000000000000000000000000000000000081526004018080602001828103825260138152602001807f41207469746c652069732072657175697265640000000000000000000000000081525060200191505060405180910390fd5b60006001836040518082805190602001908083835b60208310151561115b5780518252602082019150602081019050602083039250611136565b6001836020036101000a038019825116818451168082178552505050505050905001915050908152602001604051809103902060010180549050148061121357506112126001836040518082805190602001908083835b6020831015156111d757805182526020820191506020810190506020830392506111b2565b6001836020036101000a03801982511681845116808217855250505050505090500191505090815260200160405180910390206002016118cc565b5b15156112ad576040517f08c379a00000000000000000000000000000000000000000000000000000000081526004018080602001828103825260228152602001807f416c7265616479207265676973746572656420616e64206e6f7420657870697281526020017f656400000000000000000000000000000000000000000000000000000000000081525060400191505060405180910390fd5b600060149054906101000a900460ff161515156112c957600080fd5b60408551101515611368576040517f08c379a00000000000000000000000000000000000000000000000000000000081526004018080602001828103825260268152602001807f4a6f696e7420617574686f7273686970206c696d6974656420746f203634206181526020017f7574686f7273000000000000000000000000000000000000000000000000000081525060400191505060405180910390fd5b600185510160405190808252806020026020018201604052801561139b5781602001602082028038833980820191505090505b509350338460008151811015156113ae57fe5b9060200190602002019073ffffffffffffffffffffffffffffffffffffffff16908173ffffffffffffffffffffffffffffffffffffffff1681525050600092505b84518360ff16101561147357848360ff1681518110151561140c57fe5b90602001906020020151846001850160ff1681518110151561142a57fe5b9060200190602002019073ffffffffffffffffffffffffffffffffffffffff16908173ffffffffffffffffffffffffffffffffffffffff168152505082806001019350506113ef565b836001886040518082805190602001908083835b6020831015156114ac5780518252602082019150602081019050602083039250611487565b6001836020036101000a038019825116818451168082178552505050505050905001915050908152602001604051809103902060010190805190602001906114f5929190611a29565b50806001836040518082805190602001908083835b60208310151561152f578051825260208201915060208101905060208303925061150a565b6001836020036101000a03801982511681845116808217855250505050505090500191505090815260200160405180910390206000019080519060200190611578929190611ab3565b50611611600060169054906101000a900463ffffffff1663ffffffff166001846040518082805190602001908083835b6020831015156115cd57805182526020820191506020810190506020830392506115a8565b6001836020036101000a03801982511681845116808217855250505050505090500191505090815260200160405180910390206002016118eb90919063ffffffff16565b3373ffffffffffffffffffffffffffffffffffffffff167f9221287e8a14b313bd740c10367708dd71a6bd842aaf2848fbee7d4fb4ca329c8383604051808060200180602001838103835285818151815260200191508051906020019080838360005b8381101561168f578082015181840152602081019050611674565b50505050905090810190601f1680156116bc5780820380516001836020036101000a031916815260200191505b50838103825284818151815260200191508051906020019080838360005b838110156116f55780820151818401526020810190506116da565b50505050905090810190601f1680156117225780820380516001836020036101000a031916815260200191505b5094505050505060405180910390a250505050505050565b600060159054906101000a900460ff161515156117e5576040517f08c379a000000000000000000000000000000000000000000000000000000000815260040180806020018281038252602e8152602001807f436f6e747261637420696e7374616e63652068617320616c726561647920626581526020017f656e20696e697469616c697a656400000000000000000000000000000000000081525060400191505060405180910390fd5b816000806101000a81548173ffffffffffffffffffffffffffffffffffffffff021916908373ffffffffffffffffffffffffffffffffffffffff16021790555080600060166101000a81548163ffffffff021916908363ffffffff1602179055506001600060156101000a81548160ff0219169083151502179055505050565b6000809054906101000a900473ffffffffffffffffffffffffffffffffffffffff1673ffffffffffffffffffffffffffffffffffffffff163373ffffffffffffffffffffffffffffffffffffffff161415156118c057600080fd5b6118c981611913565b50565b60008082600101541180156118e45750428260010154105b9050919050565b4282600001819055506119078142611a0d90919063ffffffff16565b82600101819055505050565b600073ffffffffffffffffffffffffffffffffffffffff168173ffffffffffffffffffffffffffffffffffffffff161415151561194f57600080fd5b8073ffffffffffffffffffffffffffffffffffffffff166000809054906101000a900473ffffffffffffffffffffffffffffffffffffffff1673ffffffffffffffffffffffffffffffffffffffff167f8be0079c531659141344cd1fd0a4f28419497f9722a3daafe3b4186f6b6457e060405160405180910390a3806000806101000a81548173ffffffffffffffffffffffffffffffffffffffff021916908373ffffffffffffffffffffffffffffffffffffffff16021790555050565b60008183019050828110151515611a2057fe5b80905092915050565b828054828255906000526020600020908101928215611aa2579160200282015b82811115611aa15782518260006101000a81548173ffffffffffffffffffffffffffffffffffffffff021916908373ffffffffffffffffffffffffffffffffffffffff16021790555091602001919060010190611a49565b5b509050611aaf9190611b33565b5090565b828054600181600116156101000203166002900490600052602060002090601f016020900481019282601f10611af457805160ff1916838001178555611b22565b82800160010185558215611b22579182015b82811115611b21578251825591602001919060010190611b06565b5b509050611b2f9190611b76565b5090565b611b7391905b80821115611b6f57600081816101000a81549073ffffffffffffffffffffffffffffffffffffffff021916905550600101611b39565b5090565b90565b611b9891905b80821115611b94576000816000905550600101611b7c565b5090565b905600a165627a7a72305820de3d80bfa58663f8509fce57ad11120689d3548afe65526c77048554bc8124ec0029",
  "source": "pragma solidity ^0.4.24;\n\nimport \"zos-lib/contracts/migrations/Initializable.sol\";\nimport \"openzeppelin-solidity/contracts/lifecycle/Pausable.sol\";\nimport \"zos-lib/contracts/upgradeability/AdminUpgradeabilityProxy.sol\";\nimport \"./ExpirableLib.sol\";\n\n/// @title Contract for copyright authorship registration through creations manifestations\n/// @author Roberto García (http://rhizomik.net/~roberto/)\ncontract Manifestations is Pausable, Initializable {\n\n    using ExpirableLib for ExpirableLib.TimeAndExpiry;\n\n    struct Manifestation {\n        string title;\n        address[] authors;\n        ExpirableLib.TimeAndExpiry time;\n    }\n\n    uint32 public timeToExpiry;\n    mapping(string => Manifestation) private manifestations;\n\n    event ManifestEvent(string hash, string title, address indexed manifester);\n\n    constructor(uint32 _timeToExpiry) public {\n        timeToExpiry = _timeToExpiry;\n    }\n\n    /// @dev To be used when proxied (upgradeability) to initialize proxy storage\n    function initialize(address _owner, uint32 _timeToExpiry) public isInitializer {\n        owner = _owner;\n        timeToExpiry = _timeToExpiry;\n    }\n\n    /// @dev Modifier implementing the common logic for single and joint authorship.\n    /// Checks title and that hash not registered or expired. Then stores title and sets expiry.\n    /// Finally, emits ManifestEvent\n    modifier registerIfAvailable(string hash, string title) {\n        require(bytes(title).length > 0, \"A title is required\");\n        require(manifestations[hash].authors.length == 0 || manifestations[hash].time.isExpired(),\n            \"Already registered and not expired\");\n        _;\n        manifestations[hash].title = title;\n        manifestations[hash].time.setExpiry(timeToExpiry);\n        emit ManifestEvent(hash, title, msg.sender);\n    }\n\n    /// @notice Register single authorship for `msg.sender` of the manifestation with title `title`\n    /// and hash `hash`. Requires hash not previously registered or expired.\n    /// @dev To be used when there is just one author, which is considered to be the message sender\n    /// @param hash Hash of the manifestation content, for instance IPFS Base58 Hash\n    /// @param title The title of the manifestation\n    function manifestAuthorship(string hash, string title)\n    public registerIfAvailable(hash, title) whenNotPaused() {\n        address[] memory authors = new address[](1);\n        authors[0] = msg.sender;\n        manifestations[hash].authors = authors;\n    }\n\n    /// @notice Register joint authorship for `msg.sender` plus additional authors\n    /// `additionalAuthors` of the manifestation with title `title` and hash `hash`.\n    /// Requires hash not previously registered or expired and at most 64 authors,\n    /// including the one registering.\n    /// @dev To be used when there are multiple authors\n    /// @param hash Hash of the manifestation content, for instance IPFS Base58 Hash\n    /// @param title The title of the manifestation\n    /// @param additionalAuthors The additional authors,\n    /// including the one registering that becomes the first author\n    function manifestJointAuthorship(string hash, string title, address[] additionalAuthors)\n    public registerIfAvailable(hash, title) whenNotPaused() {\n        require(additionalAuthors.length < 64, \"Joint authorship limited to 64 authors\");\n        address[] memory authors = new address[](additionalAuthors.length + 1);\n        authors[0] = msg.sender;\n        for (uint8 i = 0; i < additionalAuthors.length; i++)\n            authors[i+1] = additionalAuthors[i];\n        manifestations[hash].authors = authors;\n    }\n\n    /// @notice Retrieve the title and authors of the manifestation with content hash `hash`.\n    /// @param hash Hash of the manifestation content, for instance IPFS Base58 Hash\n    /// @return The title and authors of the manifestation\n    function getManifestation(string hash) public constant\n    returns (string, address[], uint256, uint256) {\n        return (manifestations[hash].title,\n                manifestations[hash].authors,\n                manifestations[hash].time.creationTime,\n                manifestations[hash].time.expiryTime);\n    }\n}\n",
  "sourcePath": "/Users/roberto/Proyectos/InVID/WP4/copyrightly.eth/contracts/Manifestations.sol",
  "compiler": {
    "name": "solc",
    "version": "0.4.24+commit.e67f0147.Emscripten.clang"
  },
  "schemaVersion": "2.0.1",
  "updatedAt": "2018-08-24T07:09:40.877Z"
}