{
  "contractName": "Manifestations",
  "abi": [
    {
      "constant": true,
      "inputs": [],
      "name": "initialized",
      "outputs": [
        {
          "name": "",
          "type": "bool"
        }
      ],
      "payable": false,
      "stateMutability": "view",
      "type": "function"
    },
    {
      "constant": true,
      "inputs": [],
      "name": "timeToExpiry",
      "outputs": [
        {
          "name": "",
          "type": "uint32"
        }
      ],
      "payable": false,
      "stateMutability": "view",
      "type": "function"
    },
    {
      "constant": false,
      "inputs": [],
      "name": "unpause",
      "outputs": [],
      "payable": false,
      "stateMutability": "nonpayable",
      "type": "function"
    },
    {
      "constant": true,
      "inputs": [],
      "name": "paused",
      "outputs": [
        {
          "name": "",
          "type": "bool"
        }
      ],
      "payable": false,
      "stateMutability": "view",
      "type": "function"
    },
    {
      "constant": false,
      "inputs": [],
      "name": "renounceOwnership",
      "outputs": [],
      "payable": false,
      "stateMutability": "nonpayable",
      "type": "function"
    },
    {
      "constant": false,
      "inputs": [],
      "name": "pause",
      "outputs": [],
      "payable": false,
      "stateMutability": "nonpayable",
      "type": "function"
    },
    {
      "constant": true,
      "inputs": [],
      "name": "owner",
      "outputs": [
        {
          "name": "",
          "type": "address"
        }
      ],
      "payable": false,
      "stateMutability": "view",
      "type": "function"
    },
    {
      "constant": false,
      "inputs": [
        {
          "name": "_newOwner",
          "type": "address"
        }
      ],
      "name": "transferOwnership",
      "outputs": [],
      "payable": false,
      "stateMutability": "nonpayable",
      "type": "function"
    },
    {
      "inputs": [
        {
          "name": "_timeToExpiry",
          "type": "uint32"
        }
      ],
      "payable": false,
      "stateMutability": "nonpayable",
      "type": "constructor"
    },
    {
      "anonymous": false,
      "inputs": [
        {
          "indexed": false,
          "name": "hash",
          "type": "string"
        },
        {
          "indexed": false,
          "name": "title",
          "type": "string"
        },
        {
          "indexed": true,
          "name": "manifester",
          "type": "address"
        }
      ],
      "name": "ManifestEvent",
      "type": "event"
    },
    {
      "anonymous": false,
      "inputs": [
        {
          "indexed": false,
          "name": "evidenceCount",
          "type": "uint8"
        }
      ],
      "name": "AddedEvidence",
      "type": "event"
    },
    {
      "anonymous": false,
      "inputs": [],
      "name": "Pause",
      "type": "event"
    },
    {
      "anonymous": false,
      "inputs": [],
      "name": "Unpause",
      "type": "event"
    },
    {
      "anonymous": false,
      "inputs": [
        {
          "indexed": true,
          "name": "previousOwner",
          "type": "address"
        }
      ],
      "name": "OwnershipRenounced",
      "type": "event"
    },
    {
      "anonymous": false,
      "inputs": [
        {
          "indexed": true,
          "name": "previousOwner",
          "type": "address"
        },
        {
          "indexed": true,
          "name": "newOwner",
          "type": "address"
        }
      ],
      "name": "OwnershipTransferred",
      "type": "event"
    },
    {
      "constant": false,
      "inputs": [
        {
          "name": "_owner",
          "type": "address"
        },
        {
          "name": "_timeToExpiry",
          "type": "uint32"
        }
      ],
      "name": "initialize",
      "outputs": [],
      "payable": false,
      "stateMutability": "nonpayable",
      "type": "function"
    },
    {
      "constant": false,
      "inputs": [
        {
          "name": "hash",
          "type": "string"
        },
        {
          "name": "title",
          "type": "string"
        }
      ],
      "name": "manifestAuthorship",
      "outputs": [],
      "payable": false,
      "stateMutability": "nonpayable",
      "type": "function"
    },
    {
      "constant": false,
      "inputs": [
        {
          "name": "hash",
          "type": "string"
        },
        {
          "name": "title",
          "type": "string"
        },
        {
          "name": "additionalAuthors",
          "type": "address[]"
        }
      ],
      "name": "manifestJointAuthorship",
      "outputs": [],
      "payable": false,
      "stateMutability": "nonpayable",
      "type": "function"
    },
    {
      "constant": true,
      "inputs": [
        {
          "name": "hash",
          "type": "string"
        }
      ],
      "name": "getManifestation",
      "outputs": [
        {
          "name": "",
          "type": "string"
        },
        {
          "name": "",
          "type": "address[]"
        },
        {
          "name": "",
          "type": "uint256"
        },
        {
          "name": "",
          "type": "uint256"
        }
      ],
      "payable": false,
      "stateMutability": "view",
      "type": "function"
    },
    {
      "constant": false,
      "inputs": [
        {
          "name": "hash",
          "type": "string"
        }
      ],
      "name": "addEvidence",
      "outputs": [],
      "payable": false,
      "stateMutability": "nonpayable",
      "type": "function"
    }
  ],
  "bytecode": "0x608060405260008060146101000a81548160ff02191690831515021790555034801561002a57600080fd5b50604051602080611f9083398101806040528101908080519060200190929190505050336000806101000a81548173ffffffffffffffffffffffffffffffffffffffff021916908373ffffffffffffffffffffffffffffffffffffffff16021790555080600060166101000a81548163ffffffff021916908363ffffffff16021790555050611ed2806100be6000396000f3006080604052600436106100c5576000357c0100000000000000000000000000000000000000000000000000000000900463ffffffff168063158ef93e146100ca5780633e84531c146100f95780633f4ba83a1461013057806347fc89b61461014757806351a94a5f146101f65780635c975abb1461025f578063715018a61461028e5780638456cb59146102a55780638da5cb5b146102bc578063b0594ad514610313578063bfbc94121461044b578063c5e4c9f91461053d578063f2fde38b14610590575b600080fd5b3480156100d657600080fd5b506100df6105d3565b604051808215151515815260200191505060405180910390f35b34801561010557600080fd5b5061010e6105e6565b604051808263ffffffff1663ffffffff16815260200191505060405180910390f35b34801561013c57600080fd5b506101456105fc565b005b34801561015357600080fd5b506101f4600480360381019080803590602001908201803590602001908080601f0160208091040260200160405190810160405280939291908181526020018383808284378201915050505050509192919290803590602001908201803590602001908080601f01602080910402602001604051908101604052809392919081815260200183838082843782019150505050505091929192905050506106ba565b005b34801561020257600080fd5b5061025d600480360381019080803590602001908201803590602001908080601f0160208091040260200160405190810160405280939291908181526020018383808284378201915050505050509192919290505050610ca1565b005b34801561026b57600080fd5b50610274610dd5565b604051808215151515815260200191505060405180910390f35b34801561029a57600080fd5b506102a3610de8565b005b3480156102b157600080fd5b506102ba610eea565b005b3480156102c857600080fd5b506102d1610faa565b604051808273ffffffffffffffffffffffffffffffffffffffff1673ffffffffffffffffffffffffffffffffffffffff16815260200191505060405180910390f35b34801561031f57600080fd5b5061037a600480360381019080803590602001908201803590602001908080601f0160208091040260200160405190810160405280939291908181526020018383808284378201915050505050509192919290505050610fcf565b604051808060200180602001858152602001848152602001838103835287818151815260200191508051906020019080838360005b838110156103ca5780820151818401526020810190506103af565b50505050905090810190601f1680156103f75780820380516001836020036101000a031916815260200191505b50838103825286818151815260200191508051906020019060200280838360005b83811015610433578082015181840152602081019050610418565b50505050905001965050505050505060405180910390f35b34801561045757600080fd5b5061053b600480360381019080803590602001908201803590602001908080601f0160208091040260200160405190810160405280939291908181526020018383808284378201915050505050509192919290803590602001908201803590602001908080601f0160208091040260200160405190810160405280939291908181526020018383808284378201915050505050509192919290803590602001908201803590602001908080602002602001604051908101604052809392919081815260200183836020028082843782019150505050505091929192905050506112c8565b005b34801561054957600080fd5b5061058e600480360381019080803573ffffffffffffffffffffffffffffffffffffffff169060200190929190803563ffffffff1690602001909291905050506119de565b005b34801561059c57600080fd5b506105d1600480360381019080803573ffffffffffffffffffffffffffffffffffffffff169060200190929190505050611b09565b005b600060159054906101000a900460ff1681565b600060169054906101000a900463ffffffff1681565b6000809054906101000a900473ffffffffffffffffffffffffffffffffffffffff1673ffffffffffffffffffffffffffffffffffffffff163373ffffffffffffffffffffffffffffffffffffffff1614151561065757600080fd5b600060149054906101000a900460ff16151561067257600080fd5b60008060146101000a81548160ff0219169083151502179055507f7805862f689e2f13df9f062ff482ad3ad112aca9e0847911ed832e158c525b3360405160405180910390a1565b6060828260008151111515610737576040517f08c379a00000000000000000000000000000000000000000000000000000000081526004018080602001828103825260138152602001807f41207469746c652069732072657175697265640000000000000000000000000081525060200191505060405180910390fd5b60006001836040518082805190602001908083835b602083101515610771578051825260208201915060208101905060208303925061074c565b6001836020036101000a03801982511681845116808217855250505050505090500191505090815260200160405180910390206001018054905014806108a757506108286001836040518082805190602001908083835b6020831015156107ed57805182526020820191506020810190506020830392506107c8565b6001836020036101000a0380198251168184511680821785525050505050509050019150509081526020016040518091039020600201611b70565b80156108a657506108a56001836040518082805190602001908083835b60208310151561086a5780518252602082019150602081019050602083039250610845565b6001836020036101000a0380198251168184511680821785525050505050509050019150509081526020016040518091039020600401611b8f565b5b5b1515610941576040517f08c379a00000000000000000000000000000000000000000000000000000000081526004018080602001828103825260348152602001807f416c7265616479207265676973746572656420616e64206e6f7420657870697281526020017f6564206f7220776974682065766964656e63657300000000000000000000000081525060400191505060405180910390fd5b600060149054906101000a900460ff1615151561095d57600080fd5b600160405190808252806020026020018201604052801561098d5781602001602082028038833980820191505090505b509250338360008151811015156109a057fe5b9060200190602002019073ffffffffffffffffffffffffffffffffffffffff16908173ffffffffffffffffffffffffffffffffffffffff1681525050826001866040518082805190602001908083835b602083101515610a1557805182526020820191506020810190506020830392506109f0565b6001836020036101000a03801982511681845116808217855250505050505090500191505090815260200160405180910390206001019080519060200190610a5e929190611d34565b50806001836040518082805190602001908083835b602083101515610a985780518252602082019150602081019050602083039250610a73565b6001836020036101000a03801982511681845116808217855250505050505090500191505090815260200160405180910390206000019080519060200190610ae1929190611dbe565b50610b7a600060169054906101000a900463ffffffff1663ffffffff166001846040518082805190602001908083835b602083101515610b365780518252602082019150602081019050602083039250610b11565b6001836020036101000a0380198251168184511680821785525050505050509050019150509081526020016040518091039020600201611baf90919063ffffffff16565b3373ffffffffffffffffffffffffffffffffffffffff167f9221287e8a14b313bd740c10367708dd71a6bd842aaf2848fbee7d4fb4ca329c8383604051808060200180602001838103835285818151815260200191508051906020019080838360005b83811015610bf8578082015181840152602081019050610bdd565b50505050905090810190601f168015610c255780820380516001836020036101000a031916815260200191505b50838103825284818151815260200191508051906020019080838360005b83811015610c5e578082015181840152602081019050610c43565b50505050905090810190601f168015610c8b5780820380516001836020036101000a031916815260200191505b5094505050505060405180910390a25050505050565b610d176001826040518082805190602001908083835b602083101515610cdc5780518252602082019150602081019050602083039250610cb7565b6001836020036101000a0380198251168184511680821785525050505050509050019150509081526020016040518091039020600401611bd7565b7f3a79f8f9506cfb5935eb415d8f159a9f490d581dedbb5d1e01af105a2e96c9de6001826040518082805190602001908083835b602083101515610d705780518252602082019150602081019050602083039250610d4b565b6001836020036101000a038019825116818451168082178552505050505050905001915050908152602001604051809103902060040160000160009054906101000a900460ff16604051808260ff1660ff16815260200191505060405180910390a150565b600060149054906101000a900460ff1681565b6000809054906101000a900473ffffffffffffffffffffffffffffffffffffffff1673ffffffffffffffffffffffffffffffffffffffff163373ffffffffffffffffffffffffffffffffffffffff16141515610e4357600080fd5b6000809054906101000a900473ffffffffffffffffffffffffffffffffffffffff1673ffffffffffffffffffffffffffffffffffffffff167ff8df31144d9c2f0f6b59d69b8b98abd5459d07f2742c4df920b25aae33c6482060405160405180910390a260008060006101000a81548173ffffffffffffffffffffffffffffffffffffffff021916908373ffffffffffffffffffffffffffffffffffffffff160217905550565b6000809054906101000a900473ffffffffffffffffffffffffffffffffffffffff1673ffffffffffffffffffffffffffffffffffffffff163373ffffffffffffffffffffffffffffffffffffffff16141515610f4557600080fd5b600060149054906101000a900460ff16151515610f6157600080fd5b6001600060146101000a81548160ff0219169083151502179055507f6985a02210a168e66602d3235cb6db0e70f92b3ba4d376a33c0f3d9434bff62560405160405180910390a1565b6000809054906101000a900473ffffffffffffffffffffffffffffffffffffffff1681565b6060806000806001856040518082805190602001908083835b60208310151561100d5780518252602082019150602081019050602083039250610fe8565b6001836020036101000a03801982511681845116808217855250505050505090500191505090815260200160405180910390206000016001866040518082805190602001908083835b60208310151561107b5780518252602082019150602081019050602083039250611056565b6001836020036101000a03801982511681845116808217855250505050505090500191505090815260200160405180910390206001016001876040518082805190602001908083835b6020831015156110e957805182526020820191506020810190506020830392506110c4565b6001836020036101000a0380198251168184511680821785525050505050509050019150509081526020016040518091039020600201600001546001886040518082805190602001908083835b60208310151561115b5780518252602082019150602081019050602083039250611136565b6001836020036101000a038019825116818451168082178552505050505050905001915050908152602001604051809103902060020160010154838054600181600116156101000203166002900480601f01602080910402602001604051908101604052809291908181526020018280546001816001161561010002031660029004801561122a5780601f106111ff5761010080835404028352916020019161122a565b820191906000526020600020905b81548152906001019060200180831161120d57829003601f168201915b50505050509350828054806020026020016040519081016040528092919081815260200182805480156112b257602002820191906000526020600020905b8160009054906101000a900473ffffffffffffffffffffffffffffffffffffffff1673ffffffffffffffffffffffffffffffffffffffff1681526020019060010190808311611268575b5050505050925093509350935093509193509193565b60606000848460008151111515611347576040517f08c379a00000000000000000000000000000000000000000000000000000000081526004018080602001828103825260138152602001807f41207469746c652069732072657175697265640000000000000000000000000081525060200191505060405180910390fd5b60006001836040518082805190602001908083835b602083101515611381578051825260208201915060208101905060208303925061135c565b6001836020036101000a03801982511681845116808217855250505050505090500191505090815260200160405180910390206001018054905014806114b757506114386001836040518082805190602001908083835b6020831015156113fd57805182526020820191506020810190506020830392506113d8565b6001836020036101000a0380198251168184511680821785525050505050509050019150509081526020016040518091039020600201611b70565b80156114b657506114b56001836040518082805190602001908083835b60208310151561147a5780518252602082019150602081019050602083039250611455565b6001836020036101000a0380198251168184511680821785525050505050509050019150509081526020016040518091039020600401611b8f565b5b5b1515611551576040517f08c379a00000000000000000000000000000000000000000000000000000000081526004018080602001828103825260348152602001807f416c7265616479207265676973746572656420616e64206e6f7420657870697281526020017f6564206f7220776974682065766964656e63657300000000000000000000000081525060400191505060405180910390fd5b600060149054906101000a900460ff1615151561156d57600080fd5b6040855110151561160c576040517f08c379a00000000000000000000000000000000000000000000000000000000081526004018080602001828103825260268152602001807f4a6f696e7420617574686f7273686970206c696d6974656420746f203634206181526020017f7574686f7273000000000000000000000000000000000000000000000000000081525060400191505060405180910390fd5b600185510160405190808252806020026020018201604052801561163f5781602001602082028038833980820191505090505b5093503384600081518110151561165257fe5b9060200190602002019073ffffffffffffffffffffffffffffffffffffffff16908173ffffffffffffffffffffffffffffffffffffffff1681525050600092505b84518360ff16101561171757848360ff168151811015156116b057fe5b90602001906020020151846001850160ff168151811015156116ce57fe5b9060200190602002019073ffffffffffffffffffffffffffffffffffffffff16908173ffffffffffffffffffffffffffffffffffffffff16815250508280600101935050611693565b836001886040518082805190602001908083835b602083101515611750578051825260208201915060208101905060208303925061172b565b6001836020036101000a03801982511681845116808217855250505050505090500191505090815260200160405180910390206001019080519060200190611799929190611d34565b50806001836040518082805190602001908083835b6020831015156117d357805182526020820191506020810190506020830392506117ae565b6001836020036101000a0380198251168184511680821785525050505050509050019150509081526020016040518091039020600001908051906020019061181c929190611dbe565b506118b5600060169054906101000a900463ffffffff1663ffffffff166001846040518082805190602001908083835b602083101515611871578051825260208201915060208101905060208303925061184c565b6001836020036101000a0380198251168184511680821785525050505050509050019150509081526020016040518091039020600201611baf90919063ffffffff16565b3373ffffffffffffffffffffffffffffffffffffffff167f9221287e8a14b313bd740c10367708dd71a6bd842aaf2848fbee7d4fb4ca329c8383604051808060200180602001838103835285818151815260200191508051906020019080838360005b83811015611933578082015181840152602081019050611918565b50505050905090810190601f1680156119605780820380516001836020036101000a031916815260200191505b50838103825284818151815260200191508051906020019080838360005b8381101561199957808201518184015260208101905061197e565b50505050905090810190601f1680156119c65780820380516001836020036101000a031916815260200191505b5094505050505060405180910390a250505050505050565b600060159054906101000a900460ff16151515611a89576040517f08c379a000000000000000000000000000000000000000000000000000000000815260040180806020018281038252602e8152602001807f436f6e747261637420696e7374616e63652068617320616c726561647920626581526020017f656e20696e697469616c697a656400000000000000000000000000000000000081525060400191505060405180910390fd5b816000806101000a81548173ffffffffffffffffffffffffffffffffffffffff021916908373ffffffffffffffffffffffffffffffffffffffff16021790555080600060166101000a81548163ffffffff021916908363ffffffff1602179055506001600060156101000a81548160ff0219169083151502179055505050565b6000809054906101000a900473ffffffffffffffffffffffffffffffffffffffff1673ffffffffffffffffffffffffffffffffffffffff163373ffffffffffffffffffffffffffffffffffffffff16141515611b6457600080fd5b611b6d81611c1e565b50565b6000808260010154118015611b885750428260010154105b9050919050565b6000808260000160009054906101000a900460ff1660ff16149050919050565b428260000181905550611bcb8142611d1890919063ffffffff16565b82600101819055505050565b611bff60018260000160009054906101000a900460ff1660ff16611d1890919063ffffffff16565b8160000160006101000a81548160ff021916908360ff16021790555050565b600073ffffffffffffffffffffffffffffffffffffffff168173ffffffffffffffffffffffffffffffffffffffff1614151515611c5a57600080fd5b8073ffffffffffffffffffffffffffffffffffffffff166000809054906101000a900473ffffffffffffffffffffffffffffffffffffffff1673ffffffffffffffffffffffffffffffffffffffff167f8be0079c531659141344cd1fd0a4f28419497f9722a3daafe3b4186f6b6457e060405160405180910390a3806000806101000a81548173ffffffffffffffffffffffffffffffffffffffff021916908373ffffffffffffffffffffffffffffffffffffffff16021790555050565b60008183019050828110151515611d2b57fe5b80905092915050565b828054828255906000526020600020908101928215611dad579160200282015b82811115611dac5782518260006101000a81548173ffffffffffffffffffffffffffffffffffffffff021916908373ffffffffffffffffffffffffffffffffffffffff16021790555091602001919060010190611d54565b5b509050611dba9190611e3e565b5090565b828054600181600116156101000203166002900490600052602060002090601f016020900481019282601f10611dff57805160ff1916838001178555611e2d565b82800160010185558215611e2d579182015b82811115611e2c578251825591602001919060010190611e11565b5b509050611e3a9190611e81565b5090565b611e7e91905b80821115611e7a57600081816101000a81549073ffffffffffffffffffffffffffffffffffffffff021916905550600101611e44565b5090565b90565b611ea391905b80821115611e9f576000816000905550600101611e87565b5090565b905600a165627a7a72305820659c8bb6927270d107d2d81366241021b2775b71117e45b8af65744f7878a9190029",
  "source": "pragma solidity ^0.4.24;\n\nimport \"zos-lib/contracts/migrations/Initializable.sol\";\nimport \"openzeppelin-solidity/contracts/lifecycle/Pausable.sol\";\nimport \"zos-lib/contracts/upgradeability/AdminUpgradeabilityProxy.sol\";\nimport \"./ExpirableLib.sol\";\nimport \"./EvidencableLib.sol\";\n\n/// @title Contract for copyright authorship registration through creations manifestations\n/// @author Roberto Garca (http://rhizomik.net/~roberto/)\ncontract Manifestations is Pausable, Initializable {\n\n    using ExpirableLib for ExpirableLib.TimeAndExpiry;\n    using EvidencableLib for EvidencableLib.Evidentiality;\n\n    struct Manifestation {\n        string title;\n        address[] authors;\n        ExpirableLib.TimeAndExpiry time;\n        EvidencableLib.Evidentiality evidentiality;\n    }\n\n    uint32 public timeToExpiry;\n    mapping(string => Manifestation) private manifestations;\n\n    event ManifestEvent(string hash, string title, address indexed manifester);\n    event AddedEvidence(uint8 evidenceCount);\n\n    constructor(uint32 _timeToExpiry) public {\n        timeToExpiry = _timeToExpiry;\n    }\n\n    /// @dev To be used when proxied (upgradeability) to initialize proxy storage\n    function initialize(address _owner, uint32 _timeToExpiry) public isInitializer {\n        owner = _owner;\n        timeToExpiry = _timeToExpiry;\n    }\n\n    /// @dev Modifier implementing the common logic for single and joint authorship.\n    /// Checks title and that hash not registered or expired. Then stores title and sets expiry.\n    /// Finally, emits ManifestEvent\n    modifier registerIfAvailable(string hash, string title) {\n        require(bytes(title).length > 0, \"A title is required\");\n        require(manifestations[hash].authors.length == 0 || (manifestations[hash].time.isExpired()\n                && manifestations[hash].evidentiality.isUnevidenced()),\n            \"Already registered and not expired or with evidences\");\n        _;\n        manifestations[hash].title = title;\n        manifestations[hash].time.setExpiry(timeToExpiry);\n        emit ManifestEvent(hash, title, msg.sender);\n    }\n\n    /// @notice Register single authorship for `msg.sender` of the manifestation with title `title`\n    /// and hash `hash`. Requires hash not previously registered or expired.\n    /// @dev To be used when there is just one author, which is considered to be the message sender\n    /// @param hash Hash of the manifestation content, for instance IPFS Base58 Hash\n    /// @param title The title of the manifestation\n    function manifestAuthorship(string hash, string title)\n    public registerIfAvailable(hash, title) whenNotPaused() {\n        address[] memory authors = new address[](1);\n        authors[0] = msg.sender;\n        manifestations[hash].authors = authors;\n    }\n\n    /// @notice Register joint authorship for `msg.sender` plus additional authors\n    /// `additionalAuthors` of the manifestation with title `title` and hash `hash`.\n    /// Requires hash not previously registered or expired and at most 64 authors,\n    /// including the one registering.\n    /// @dev To be used when there are multiple authors\n    /// @param hash Hash of the manifestation content, for instance IPFS Base58 Hash\n    /// @param title The title of the manifestation\n    /// @param additionalAuthors The additional authors,\n    /// including the one registering that becomes the first author\n    function manifestJointAuthorship(string hash, string title, address[] additionalAuthors)\n    public registerIfAvailable(hash, title) whenNotPaused() {\n        require(additionalAuthors.length < 64, \"Joint authorship limited to 64 authors\");\n        address[] memory authors = new address[](additionalAuthors.length + 1);\n        authors[0] = msg.sender;\n        for (uint8 i = 0; i < additionalAuthors.length; i++)\n            authors[i+1] = additionalAuthors[i];\n        manifestations[hash].authors = authors;\n    }\n\n    /// @notice Retrieve the title and authors of the manifestation with content hash `hash`.\n    /// @param hash Hash of the manifestation content, for instance IPFS Base58 Hash\n    /// @return The title and authors of the manifestation\n    function getManifestation(string hash) public constant\n    returns (string, address[], uint256, uint256) {\n        return (manifestations[hash].title,\n                manifestations[hash].authors,\n                manifestations[hash].time.creationTime,\n                manifestations[hash].time.expiryTime);\n    }\n\n    function addEvidence(string hash) public {\n        manifestations[hash].evidentiality.addEvidence();\n        emit AddedEvidence(manifestations[hash].evidentiality.evidenceCount);\n    }\n}\n",
  "sourcePath": "/Users/roberto/Proyectos/InVID/WP4/copyrightly.eth/contracts/Manifestations.sol",
  "compiler": {
    "name": "solc",
    "version": "0.4.24+commit.e67f0147.Emscripten.clang"
  },
  "schemaVersion": "2.0.1",
  "updatedAt": "2018-08-24T11:56:48.394Z"
}