{
  "contractName": "Manifestations",
  "abi": [
    {
      "constant": false,
      "inputs": [
        {
          "name": "provider",
          "type": "address"
        }
      ],
      "name": "addEvidenceProvider",
      "outputs": [],
      "payable": false,
      "stateMutability": "nonpayable",
      "type": "function"
    },
    {
      "constant": true,
      "inputs": [],
      "name": "initialized",
      "outputs": [
        {
          "name": "",
          "type": "bool"
        }
      ],
      "payable": false,
      "stateMutability": "view",
      "type": "function"
    },
    {
      "constant": true,
      "inputs": [],
      "name": "timeToExpiry",
      "outputs": [
        {
          "name": "",
          "type": "uint32"
        }
      ],
      "payable": false,
      "stateMutability": "view",
      "type": "function"
    },
    {
      "constant": false,
      "inputs": [],
      "name": "unpause",
      "outputs": [],
      "payable": false,
      "stateMutability": "nonpayable",
      "type": "function"
    },
    {
      "constant": false,
      "inputs": [
        {
          "name": "hash",
          "type": "string"
        }
      ],
      "name": "addEvidence",
      "outputs": [],
      "payable": false,
      "stateMutability": "nonpayable",
      "type": "function"
    },
    {
      "constant": true,
      "inputs": [],
      "name": "paused",
      "outputs": [
        {
          "name": "",
          "type": "bool"
        }
      ],
      "payable": false,
      "stateMutability": "view",
      "type": "function"
    },
    {
      "constant": false,
      "inputs": [
        {
          "name": "hash",
          "type": "string"
        }
      ],
      "name": "getEvidenceCount",
      "outputs": [
        {
          "name": "",
          "type": "uint8"
        }
      ],
      "payable": false,
      "stateMutability": "nonpayable",
      "type": "function"
    },
    {
      "constant": false,
      "inputs": [],
      "name": "renounceOwnership",
      "outputs": [],
      "payable": false,
      "stateMutability": "nonpayable",
      "type": "function"
    },
    {
      "constant": false,
      "inputs": [],
      "name": "pause",
      "outputs": [],
      "payable": false,
      "stateMutability": "nonpayable",
      "type": "function"
    },
    {
      "constant": true,
      "inputs": [],
      "name": "owner",
      "outputs": [
        {
          "name": "",
          "type": "address"
        }
      ],
      "payable": false,
      "stateMutability": "view",
      "type": "function"
    },
    {
      "constant": false,
      "inputs": [
        {
          "name": "_newOwner",
          "type": "address"
        }
      ],
      "name": "transferOwnership",
      "outputs": [],
      "payable": false,
      "stateMutability": "nonpayable",
      "type": "function"
    },
    {
      "inputs": [
        {
          "name": "_timeToExpiry",
          "type": "uint32"
        }
      ],
      "payable": false,
      "stateMutability": "nonpayable",
      "type": "constructor"
    },
    {
      "anonymous": false,
      "inputs": [
        {
          "indexed": false,
          "name": "hash",
          "type": "string"
        },
        {
          "indexed": false,
          "name": "title",
          "type": "string"
        },
        {
          "indexed": true,
          "name": "manifester",
          "type": "address"
        }
      ],
      "name": "ManifestEvent",
      "type": "event"
    },
    {
      "anonymous": false,
      "inputs": [
        {
          "indexed": false,
          "name": "evidenceCount",
          "type": "uint8"
        }
      ],
      "name": "AddedEvidence",
      "type": "event"
    },
    {
      "anonymous": false,
      "inputs": [],
      "name": "Pause",
      "type": "event"
    },
    {
      "anonymous": false,
      "inputs": [],
      "name": "Unpause",
      "type": "event"
    },
    {
      "anonymous": false,
      "inputs": [
        {
          "indexed": true,
          "name": "previousOwner",
          "type": "address"
        }
      ],
      "name": "OwnershipRenounced",
      "type": "event"
    },
    {
      "anonymous": false,
      "inputs": [
        {
          "indexed": true,
          "name": "previousOwner",
          "type": "address"
        },
        {
          "indexed": true,
          "name": "newOwner",
          "type": "address"
        }
      ],
      "name": "OwnershipTransferred",
      "type": "event"
    },
    {
      "constant": false,
      "inputs": [
        {
          "name": "_owner",
          "type": "address"
        },
        {
          "name": "_timeToExpiry",
          "type": "uint32"
        }
      ],
      "name": "initialize",
      "outputs": [],
      "payable": false,
      "stateMutability": "nonpayable",
      "type": "function"
    },
    {
      "constant": false,
      "inputs": [
        {
          "name": "hash",
          "type": "string"
        },
        {
          "name": "title",
          "type": "string"
        }
      ],
      "name": "manifestAuthorship",
      "outputs": [],
      "payable": false,
      "stateMutability": "nonpayable",
      "type": "function"
    },
    {
      "constant": false,
      "inputs": [
        {
          "name": "hash",
          "type": "string"
        },
        {
          "name": "title",
          "type": "string"
        },
        {
          "name": "additionalAuthors",
          "type": "address[]"
        }
      ],
      "name": "manifestJointAuthorship",
      "outputs": [],
      "payable": false,
      "stateMutability": "nonpayable",
      "type": "function"
    },
    {
      "constant": true,
      "inputs": [
        {
          "name": "hash",
          "type": "string"
        }
      ],
      "name": "getManifestation",
      "outputs": [
        {
          "name": "",
          "type": "string"
        },
        {
          "name": "",
          "type": "address[]"
        },
        {
          "name": "",
          "type": "uint256"
        },
        {
          "name": "",
          "type": "uint256"
        }
      ],
      "payable": false,
      "stateMutability": "view",
      "type": "function"
    }
  ],
  "bytecode": "0x608060405260008060146101000a81548160ff02191690831515021790555034801561002a57600080fd5b506040516020806121b183398101806040528101908080519060200190929190505050336000806101000a81548173ffffffffffffffffffffffffffffffffffffffff021916908373ffffffffffffffffffffffffffffffffffffffff16021790555080600360006101000a81548163ffffffff021916908363ffffffff160217905550506120f3806100be6000396000f3006080604052600436106100db576000357c0100000000000000000000000000000000000000000000000000000000900463ffffffff168063144b763a146100e0578063158ef93e146101235780633e84531c146101525780633f4ba83a1461018957806347fc89b6146101a057806351a94a5f1461024f5780635c975abb146102b8578063646986fb146102e7578063715018a61461036a5780638456cb59146103815780638da5cb5b14610398578063b0594ad5146103ef578063bfbc941214610527578063c5e4c9f914610619578063f2fde38b1461066c575b600080fd5b3480156100ec57600080fd5b50610121600480360381019080803573ffffffffffffffffffffffffffffffffffffffff1690602001909291905050506106af565b005b34801561012f57600080fd5b50610138610764565b604051808215151515815260200191505060405180910390f35b34801561015e57600080fd5b50610167610777565b604051808263ffffffff1663ffffffff16815260200191505060405180910390f35b34801561019557600080fd5b5061019e61078d565b005b3480156101ac57600080fd5b5061024d600480360381019080803590602001908201803590602001908080601f0160208091040260200160405190810160405280939291908181526020018383808284378201915050505050509192919290803590602001908201803590602001908080601f016020809104026020016040519081016040528093929190818152602001838380828437820191505050505050919291929050505061084b565b005b34801561025b57600080fd5b506102b6600480360381019080803590602001908201803590602001908080601f0160208091040260200160405190810160405280939291908181526020018383808284378201915050505050509192919290505050610dc5565b005b3480156102c457600080fd5b506102cd610fc1565b604051808215151515815260200191505060405180910390f35b3480156102f357600080fd5b5061034e600480360381019080803590602001908201803590602001908080601f0160208091040260200160405190810160405280939291908181526020018383808284378201915050505050509192919290505050610fd4565b604051808260ff1660ff16815260200191505060405180910390f35b34801561037657600080fd5b5061037f611056565b005b34801561038d57600080fd5b50610396611158565b005b3480156103a457600080fd5b506103ad611218565b604051808273ffffffffffffffffffffffffffffffffffffffff1673ffffffffffffffffffffffffffffffffffffffff16815260200191505060405180910390f35b3480156103fb57600080fd5b50610456600480360381019080803590602001908201803590602001908080601f016020809104026020016040519081016040528093929190818152602001838380828437820191505050505050919291929050505061123d565b604051808060200180602001858152602001848152602001838103835287818151815260200191508051906020019080838360005b838110156104a657808201518184015260208101905061048b565b50505050905090810190601f1680156104d35780820380516001836020036101000a031916815260200191505b50838103825286818151815260200191508051906020019060200280838360005b8381101561050f5780820151818401526020810190506104f4565b50505050905001965050505050505060405180910390f35b34801561053357600080fd5b50610617600480360381019080803590602001908201803590602001908080601f0160208091040260200160405190810160405280939291908181526020018383808284378201915050505050509192919290803590602001908201803590602001908080601f016020809104026020016040519081016040528093929190818152602001838380828437820191505050505050919291929080359060200190820180359060200190808060200260200160405190810160405280939291908181526020018383602002808284378201915050505050509192919290505050611536565b005b34801561062557600080fd5b5061066a600480360381019080803573ffffffffffffffffffffffffffffffffffffffff169060200190929190803563ffffffff169060200190929190505050611bdf565b005b34801561067857600080fd5b506106ad600480360381019080803573ffffffffffffffffffffffffffffffffffffffff169060200190929190505050611d0a565b005b6000809054906101000a900473ffffffffffffffffffffffffffffffffffffffff1673ffffffffffffffffffffffffffffffffffffffff163373ffffffffffffffffffffffffffffffffffffffff1614151561070a57600080fd5b60018060008373ffffffffffffffffffffffffffffffffffffffff1673ffffffffffffffffffffffffffffffffffffffff16815260200190815260200160002060006101000a81548160ff02191690831515021790555050565b600060159054906101000a900460ff1681565b600360009054906101000a900463ffffffff1681565b6000809054906101000a900473ffffffffffffffffffffffffffffffffffffffff1673ffffffffffffffffffffffffffffffffffffffff163373ffffffffffffffffffffffffffffffffffffffff161415156107e857600080fd5b600060149054906101000a900460ff16151561080357600080fd5b60008060146101000a81548160ff0219169083151502179055507f7805862f689e2f13df9f062ff482ad3ad112aca9e0847911ed832e158c525b3360405160405180910390a1565b60608282600081511115156108c8576040517f08c379a00000000000000000000000000000000000000000000000000000000081526004018080602001828103825260138152602001807f41207469746c652069732072657175697265640000000000000000000000000081525060200191505060405180910390fd5b60006004836040518082805190602001908083835b60208310151561090257805182526020820191506020810190506020830392506108dd565b6001836020036101000a03801982511681845116808217855250505050505090500191505090815260200160405180910390206001018054905014806109cb57506109b96004836040518082805190602001908083835b60208310151561097e5780518252602082019150602081019050602083039250610959565b6001836020036101000a0380198251168184511680821785525050505050509050019150509081526020016040518091039020600201611d71565b80156109ca57506109c982611d90565b5b5b1515610a65576040517f08c379a00000000000000000000000000000000000000000000000000000000081526004018080602001828103825260348152602001807f416c7265616479207265676973746572656420616e64206e6f7420657870697281526020017f6564206f7220776974682065766964656e63657300000000000000000000000081525060400191505060405180910390fd5b600060149054906101000a900460ff16151515610a8157600080fd5b6001604051908082528060200260200182016040528015610ab15781602001602082028038833980820191505090505b50925033836000815181101515610ac457fe5b9060200190602002019073ffffffffffffffffffffffffffffffffffffffff16908173ffffffffffffffffffffffffffffffffffffffff1681525050826004866040518082805190602001908083835b602083101515610b395780518252602082019150602081019050602083039250610b14565b6001836020036101000a03801982511681845116808217855250505050505090500191505090815260200160405180910390206001019080519060200190610b82929190611f55565b50806004836040518082805190602001908083835b602083101515610bbc5780518252602082019150602081019050602083039250610b97565b6001836020036101000a03801982511681845116808217855250505050505090500191505090815260200160405180910390206000019080519060200190610c05929190611fdf565b50610c9e600360009054906101000a900463ffffffff1663ffffffff166004846040518082805190602001908083835b602083101515610c5a5780518252602082019150602081019050602083039250610c35565b6001836020036101000a0380198251168184511680821785525050505050509050019150509081526020016040518091039020600201611e1790919063ffffffff16565b3373ffffffffffffffffffffffffffffffffffffffff167f9221287e8a14b313bd740c10367708dd71a6bd842aaf2848fbee7d4fb4ca329c8383604051808060200180602001838103835285818151815260200191508051906020019080838360005b83811015610d1c578082015181840152602081019050610d01565b50505050905090810190601f168015610d495780820380516001836020036101000a031916815260200191505b50838103825284818151815260200191508051906020019080838360005b83811015610d82578082015181840152602081019050610d67565b50505050905090810190601f168015610daf5780820380516001836020036101000a031916815260200191505b5094505050505060405180910390a25050505050565b600160003373ffffffffffffffffffffffffffffffffffffffff1673ffffffffffffffffffffffffffffffffffffffff16815260200190815260200160002060009054906101000a900460ff161515610eac576040517f08c379a000000000000000000000000000000000000000000000000000000000815260040180806020018281038252602a8152602001807f4f6e6c7920726567697374657265642065766964656e63652070726f7669646581526020017f727320616c6c6f7765640000000000000000000000000000000000000000000081525060400191505060405180910390fd5b610f3b60016002836040518082805190602001908083835b602083101515610ee95780518252602082019150602081019050602083039250610ec4565b6001836020036101000a038019825116818451168082178552505050505050905001915050908152602001604051809103902060009054906101000a900460ff1660ff16611e3f90919063ffffffff16565b6002826040518082805190602001908083835b602083101515610f735780518252602082019150602081019050602083039250610f4e565b6001836020036101000a038019825116818451168082178552505050505050905001915050908152602001604051809103902060006101000a81548160ff021916908360ff16021790555050565b600060149054906101000a900460ff1681565b60006002826040518082805190602001908083835b60208310151561100e5780518252602082019150602081019050602083039250610fe9565b6001836020036101000a038019825116818451168082178552505050505050905001915050908152602001604051809103902060009054906101000a900460ff169050919050565b6000809054906101000a900473ffffffffffffffffffffffffffffffffffffffff1673ffffffffffffffffffffffffffffffffffffffff163373ffffffffffffffffffffffffffffffffffffffff161415156110b157600080fd5b6000809054906101000a900473ffffffffffffffffffffffffffffffffffffffff1673ffffffffffffffffffffffffffffffffffffffff167ff8df31144d9c2f0f6b59d69b8b98abd5459d07f2742c4df920b25aae33c6482060405160405180910390a260008060006101000a81548173ffffffffffffffffffffffffffffffffffffffff021916908373ffffffffffffffffffffffffffffffffffffffff160217905550565b6000809054906101000a900473ffffffffffffffffffffffffffffffffffffffff1673ffffffffffffffffffffffffffffffffffffffff163373ffffffffffffffffffffffffffffffffffffffff161415156111b357600080fd5b600060149054906101000a900460ff161515156111cf57600080fd5b6001600060146101000a81548160ff0219169083151502179055507f6985a02210a168e66602d3235cb6db0e70f92b3ba4d376a33c0f3d9434bff62560405160405180910390a1565b6000809054906101000a900473ffffffffffffffffffffffffffffffffffffffff1681565b6060806000806004856040518082805190602001908083835b60208310151561127b5780518252602082019150602081019050602083039250611256565b6001836020036101000a03801982511681845116808217855250505050505090500191505090815260200160405180910390206000016004866040518082805190602001908083835b6020831015156112e957805182526020820191506020810190506020830392506112c4565b6001836020036101000a03801982511681845116808217855250505050505090500191505090815260200160405180910390206001016004876040518082805190602001908083835b6020831015156113575780518252602082019150602081019050602083039250611332565b6001836020036101000a0380198251168184511680821785525050505050509050019150509081526020016040518091039020600201600001546004886040518082805190602001908083835b6020831015156113c957805182526020820191506020810190506020830392506113a4565b6001836020036101000a038019825116818451168082178552505050505050905001915050908152602001604051809103902060020160010154838054600181600116156101000203166002900480601f0160208091040260200160405190810160405280929190818152602001828054600181600116156101000203166002900480156114985780601f1061146d57610100808354040283529160200191611498565b820191906000526020600020905b81548152906001019060200180831161147b57829003601f168201915b505050505093508280548060200260200160405190810160405280929190818152602001828054801561152057602002820191906000526020600020905b8160009054906101000a900473ffffffffffffffffffffffffffffffffffffffff1673ffffffffffffffffffffffffffffffffffffffff16815260200190600101908083116114d6575b5050505050925093509350935093509193509193565b606060008484600081511115156115b5576040517f08c379a00000000000000000000000000000000000000000000000000000000081526004018080602001828103825260138152602001807f41207469746c652069732072657175697265640000000000000000000000000081525060200191505060405180910390fd5b60006004836040518082805190602001908083835b6020831015156115ef57805182526020820191506020810190506020830392506115ca565b6001836020036101000a03801982511681845116808217855250505050505090500191505090815260200160405180910390206001018054905014806116b857506116a66004836040518082805190602001908083835b60208310151561166b5780518252602082019150602081019050602083039250611646565b6001836020036101000a0380198251168184511680821785525050505050509050019150509081526020016040518091039020600201611d71565b80156116b757506116b682611d90565b5b5b1515611752576040517f08c379a00000000000000000000000000000000000000000000000000000000081526004018080602001828103825260348152602001807f416c7265616479207265676973746572656420616e64206e6f7420657870697281526020017f6564206f7220776974682065766964656e63657300000000000000000000000081525060400191505060405180910390fd5b600060149054906101000a900460ff1615151561176e57600080fd5b6040855110151561180d576040517f08c379a00000000000000000000000000000000000000000000000000000000081526004018080602001828103825260268152602001807f4a6f696e7420617574686f7273686970206c696d6974656420746f203634206181526020017f7574686f7273000000000000000000000000000000000000000000000000000081525060400191505060405180910390fd5b60018551016040519080825280602002602001820160405280156118405781602001602082028038833980820191505090505b5093503384600081518110151561185357fe5b9060200190602002019073ffffffffffffffffffffffffffffffffffffffff16908173ffffffffffffffffffffffffffffffffffffffff1681525050600092505b84518360ff16101561191857848360ff168151811015156118b157fe5b90602001906020020151846001850160ff168151811015156118cf57fe5b9060200190602002019073ffffffffffffffffffffffffffffffffffffffff16908173ffffffffffffffffffffffffffffffffffffffff16815250508280600101935050611894565b836004886040518082805190602001908083835b602083101515611951578051825260208201915060208101905060208303925061192c565b6001836020036101000a0380198251168184511680821785525050505050509050019150509081526020016040518091039020600101908051906020019061199a929190611f55565b50806004836040518082805190602001908083835b6020831015156119d457805182526020820191506020810190506020830392506119af565b6001836020036101000a03801982511681845116808217855250505050505090500191505090815260200160405180910390206000019080519060200190611a1d929190611fdf565b50611ab6600360009054906101000a900463ffffffff1663ffffffff166004846040518082805190602001908083835b602083101515611a725780518252602082019150602081019050602083039250611a4d565b6001836020036101000a0380198251168184511680821785525050505050509050019150509081526020016040518091039020600201611e1790919063ffffffff16565b3373ffffffffffffffffffffffffffffffffffffffff167f9221287e8a14b313bd740c10367708dd71a6bd842aaf2848fbee7d4fb4ca329c8383604051808060200180602001838103835285818151815260200191508051906020019080838360005b83811015611b34578082015181840152602081019050611b19565b50505050905090810190601f168015611b615780820380516001836020036101000a031916815260200191505b50838103825284818151815260200191508051906020019080838360005b83811015611b9a578082015181840152602081019050611b7f565b50505050905090810190601f168015611bc75780820380516001836020036101000a031916815260200191505b5094505050505060405180910390a250505050505050565b600060159054906101000a900460ff16151515611c8a576040517f08c379a000000000000000000000000000000000000000000000000000000000815260040180806020018281038252602e8152602001807f436f6e747261637420696e7374616e63652068617320616c726561647920626581526020017f656e20696e697469616c697a656400000000000000000000000000000000000081525060400191505060405180910390fd5b816000806101000a81548173ffffffffffffffffffffffffffffffffffffffff021916908373ffffffffffffffffffffffffffffffffffffffff16021790555080600360006101000a81548163ffffffff021916908363ffffffff1602179055506001600060156101000a81548160ff0219169083151502179055505050565b6000809054906101000a900473ffffffffffffffffffffffffffffffffffffffff1673ffffffffffffffffffffffffffffffffffffffff163373ffffffffffffffffffffffffffffffffffffffff16141515611d6557600080fd5b611d6e81611e5b565b50565b6000808260010154118015611d895750428260010154105b9050919050565b6000806002836040518082805190602001908083835b602083101515611dcb5780518252602082019150602081019050602083039250611da6565b6001836020036101000a038019825116818451168082178552505050505050905001915050908152602001604051809103902060009054906101000a900460ff1660ff16149050919050565b428260000181905550611e338142611e3f90919063ffffffff16565b82600101819055505050565b60008183019050828110151515611e5257fe5b80905092915050565b600073ffffffffffffffffffffffffffffffffffffffff168173ffffffffffffffffffffffffffffffffffffffff1614151515611e9757600080fd5b8073ffffffffffffffffffffffffffffffffffffffff166000809054906101000a900473ffffffffffffffffffffffffffffffffffffffff1673ffffffffffffffffffffffffffffffffffffffff167f8be0079c531659141344cd1fd0a4f28419497f9722a3daafe3b4186f6b6457e060405160405180910390a3806000806101000a81548173ffffffffffffffffffffffffffffffffffffffff021916908373ffffffffffffffffffffffffffffffffffffffff16021790555050565b828054828255906000526020600020908101928215611fce579160200282015b82811115611fcd5782518260006101000a81548173ffffffffffffffffffffffffffffffffffffffff021916908373ffffffffffffffffffffffffffffffffffffffff16021790555091602001919060010190611f75565b5b509050611fdb919061205f565b5090565b828054600181600116156101000203166002900490600052602060002090601f016020900481019282601f1061202057805160ff191683800117855561204e565b8280016001018555821561204e579182015b8281111561204d578251825591602001919060010190612032565b5b50905061205b91906120a2565b5090565b61209f91905b8082111561209b57600081816101000a81549073ffffffffffffffffffffffffffffffffffffffff021916905550600101612065565b5090565b90565b6120c491905b808211156120c05760008160009055506001016120a8565b5090565b905600a165627a7a723058201fcabf72eb82a97c87b7ae85a97dbc962d6a91f6a6278e0773659dc93927e7a40029",
  "source": "pragma solidity ^0.4.24;\n\nimport \"zos-lib/contracts/migrations/Initializable.sol\";\nimport \"openzeppelin-solidity/contracts/lifecycle/Pausable.sol\";\nimport \"zos-lib/contracts/upgradeability/AdminUpgradeabilityProxy.sol\";\nimport \"./ExpirableLib.sol\";\nimport \"./Evidencable.sol\";\n\n/// @title Contract for copyright authorship registration through creations manifestations\n/// @author Roberto Garca (http://rhizomik.net/~roberto/)\ncontract Manifestations is Pausable, Initializable, Evidencable {\n\n    using ExpirableLib for ExpirableLib.TimeAndExpiry;\n\n    struct Manifestation {\n        string title;\n        address[] authors;\n        ExpirableLib.TimeAndExpiry time;\n    }\n\n    uint32 public timeToExpiry;\n    mapping(string => Manifestation) private manifestations;\n\n    event ManifestEvent(string hash, string title, address indexed manifester);\n    event AddedEvidence(uint8 evidenceCount);\n\n    constructor(uint32 _timeToExpiry) public {\n        timeToExpiry = _timeToExpiry;\n    }\n\n    /// @dev To be used when proxied (upgradeability) to initialize proxy storage\n    function initialize(address _owner, uint32 _timeToExpiry) public isInitializer {\n        owner = _owner;\n        timeToExpiry = _timeToExpiry;\n    }\n\n    /// @dev Modifier implementing the common logic for single and joint authorship.\n    /// Checks title and that hash not registered or expired. Then stores title and sets expiry.\n    /// Finally, emits ManifestEvent\n    /// @param hash Hash of the manifestation content, for instance IPFS Base58 Hash\n    /// @param title The title of the manifestation\n    modifier registerIfAvailable(string hash, string title) {\n        require(bytes(title).length > 0, \"A title is required\");\n        require(manifestations[hash].authors.length == 0 ||\n                (manifestations[hash].time.isExpired() && isUnevidenced(hash)),\n            \"Already registered and not expired or with evidences\");\n        _;\n        manifestations[hash].title = title;\n        manifestations[hash].time.setExpiry(timeToExpiry);\n        emit ManifestEvent(hash, title, msg.sender);\n    }\n\n    /// @notice Register single authorship for `msg.sender` of the manifestation with title `title`\n    /// and hash `hash`. Requires hash not previously registered or expired.\n    /// @dev To be used when there is just one author, which is considered to be the message sender\n    /// @param hash Hash of the manifestation content, for instance IPFS Base58 Hash\n    /// @param title The title of the manifestation\n    function manifestAuthorship(string hash, string title)\n    public registerIfAvailable(hash, title) whenNotPaused() {\n        address[] memory authors = new address[](1);\n        authors[0] = msg.sender;\n        manifestations[hash].authors = authors;\n    }\n\n    /// @notice Register joint authorship for `msg.sender` plus additional authors\n    /// `additionalAuthors` of the manifestation with title `title` and hash `hash`.\n    /// Requires hash not previously registered or expired and at most 64 authors,\n    /// including the one registering.\n    /// @dev To be used when there are multiple authors\n    /// @param hash Hash of the manifestation content, for instance IPFS Base58 Hash\n    /// @param title The title of the manifestation\n    /// @param additionalAuthors The additional authors,\n    /// including the one registering that becomes the first author\n    function manifestJointAuthorship(string hash, string title, address[] additionalAuthors)\n    public registerIfAvailable(hash, title) whenNotPaused() {\n        require(additionalAuthors.length < 64, \"Joint authorship limited to 64 authors\");\n        address[] memory authors = new address[](additionalAuthors.length + 1);\n        authors[0] = msg.sender;\n        for (uint8 i = 0; i < additionalAuthors.length; i++)\n            authors[i+1] = additionalAuthors[i];\n        manifestations[hash].authors = authors;\n    }\n\n    /// @notice Retrieve the title and authors of the manifestation with content hash `hash`.\n    /// @param hash Hash of the manifestation content, for instance IPFS Base58 Hash\n    /// @return The title and authors of the manifestation\n    function getManifestation(string hash) public constant\n    returns (string, address[], uint256, uint256) {\n        return (manifestations[hash].title,\n                manifestations[hash].authors,\n                manifestations[hash].time.creationTime,\n                manifestations[hash].time.expiryTime);\n    }\n}\n",
  "sourcePath": "/Users/roberto/Proyectos/InVID/WP4/copyrightly.eth/contracts/Manifestations.sol",
  "compiler": {
    "name": "solc",
    "version": "0.4.24+commit.e67f0147.Emscripten.clang"
  },
  "schemaVersion": "2.0.1",
  "updatedAt": "2018-08-25T00:30:38.551Z"
}