{
  "contractName": "Registry",
  "abi": [
    {
      "constant": true,
      "inputs": [],
      "name": "initialized",
      "outputs": [
        {
          "name": "",
          "type": "bool"
        }
      ],
      "payable": false,
      "stateMutability": "view",
      "type": "function"
    },
    {
      "constant": false,
      "inputs": [],
      "name": "unpause",
      "outputs": [],
      "payable": false,
      "stateMutability": "nonpayable",
      "type": "function"
    },
    {
      "constant": true,
      "inputs": [],
      "name": "paused",
      "outputs": [
        {
          "name": "",
          "type": "bool"
        }
      ],
      "payable": false,
      "stateMutability": "view",
      "type": "function"
    },
    {
      "constant": false,
      "inputs": [],
      "name": "renounceOwnership",
      "outputs": [],
      "payable": false,
      "stateMutability": "nonpayable",
      "type": "function"
    },
    {
      "constant": false,
      "inputs": [],
      "name": "pause",
      "outputs": [],
      "payable": false,
      "stateMutability": "nonpayable",
      "type": "function"
    },
    {
      "constant": true,
      "inputs": [],
      "name": "owner",
      "outputs": [
        {
          "name": "",
          "type": "address"
        }
      ],
      "payable": false,
      "stateMutability": "view",
      "type": "function"
    },
    {
      "constant": false,
      "inputs": [
        {
          "name": "_newOwner",
          "type": "address"
        }
      ],
      "name": "transferOwnership",
      "outputs": [],
      "payable": false,
      "stateMutability": "nonpayable",
      "type": "function"
    },
    {
      "anonymous": false,
      "inputs": [
        {
          "indexed": false,
          "name": "hash",
          "type": "string"
        },
        {
          "indexed": false,
          "name": "title",
          "type": "string"
        },
        {
          "indexed": false,
          "name": "authors",
          "type": "address[]"
        },
        {
          "indexed": true,
          "name": "manifester",
          "type": "address"
        }
      ],
      "name": "ManifestEvent",
      "type": "event"
    },
    {
      "anonymous": false,
      "inputs": [],
      "name": "Pause",
      "type": "event"
    },
    {
      "anonymous": false,
      "inputs": [],
      "name": "Unpause",
      "type": "event"
    },
    {
      "anonymous": false,
      "inputs": [
        {
          "indexed": true,
          "name": "previousOwner",
          "type": "address"
        }
      ],
      "name": "OwnershipRenounced",
      "type": "event"
    },
    {
      "anonymous": false,
      "inputs": [
        {
          "indexed": true,
          "name": "previousOwner",
          "type": "address"
        },
        {
          "indexed": true,
          "name": "newOwner",
          "type": "address"
        }
      ],
      "name": "OwnershipTransferred",
      "type": "event"
    },
    {
      "constant": false,
      "inputs": [
        {
          "name": "_owner",
          "type": "address"
        }
      ],
      "name": "initialize",
      "outputs": [],
      "payable": false,
      "stateMutability": "nonpayable",
      "type": "function"
    },
    {
      "constant": false,
      "inputs": [
        {
          "name": "hash",
          "type": "string"
        },
        {
          "name": "title",
          "type": "string"
        }
      ],
      "name": "manifestAuthorship",
      "outputs": [],
      "payable": false,
      "stateMutability": "nonpayable",
      "type": "function"
    },
    {
      "constant": false,
      "inputs": [
        {
          "name": "hash",
          "type": "string"
        },
        {
          "name": "title",
          "type": "string"
        },
        {
          "name": "additionalAuthors",
          "type": "address[]"
        }
      ],
      "name": "manifestJointAuthorship",
      "outputs": [],
      "payable": false,
      "stateMutability": "nonpayable",
      "type": "function"
    },
    {
      "constant": true,
      "inputs": [
        {
          "name": "hash",
          "type": "string"
        }
      ],
      "name": "getManifestation",
      "outputs": [
        {
          "name": "title",
          "type": "string"
        },
        {
          "name": "authors",
          "type": "address[]"
        }
      ],
      "payable": false,
      "stateMutability": "view",
      "type": "function"
    }
  ],
  "bytecode": "0x608060405260008060146101000a81548160ff021916908315150217905550336000806101000a81548173ffffffffffffffffffffffffffffffffffffffff021916908373ffffffffffffffffffffffffffffffffffffffff1602179055506116a28061006d6000396000f3006080604052600436106100af576000357c0100000000000000000000000000000000000000000000000000000000900463ffffffff168063158ef93e146100b45780633f4ba83a146100e357806347fc89b6146100fa5780635c975abb146101a9578063715018a6146101d85780638456cb59146101ef5780638da5cb5b14610206578063b0594ad51461025d578063bfbc941214610387578063c4d66de814610479578063f2fde38b146104bc575b600080fd5b3480156100c057600080fd5b506100c96104ff565b604051808215151515815260200191505060405180910390f35b3480156100ef57600080fd5b506100f8610512565b005b34801561010657600080fd5b506101a7600480360381019080803590602001908201803590602001908080601f0160208091040260200160405190810160405280939291908181526020018383808284378201915050505050509192919290803590602001908201803590602001908080601f01602080910402602001604051908101604052809392919081815260200183838082843782019150505050505091929192905050506105d0565b005b3480156101b557600080fd5b506101be61098d565b604051808215151515815260200191505060405180910390f35b3480156101e457600080fd5b506101ed6109a0565b005b3480156101fb57600080fd5b50610204610aa2565b005b34801561021257600080fd5b5061021b610b62565b604051808273ffffffffffffffffffffffffffffffffffffffff1673ffffffffffffffffffffffffffffffffffffffff16815260200191505060405180910390f35b34801561026957600080fd5b506102c4600480360381019080803590602001908201803590602001908080601f0160208091040260200160405190810160405280939291908181526020018383808284378201915050505050509192919290505050610b87565b604051808060200180602001838103835285818151815260200191508051906020019080838360005b838110156103085780820151818401526020810190506102ed565b50505050905090810190601f1680156103355780820380516001836020036101000a031916815260200191505b50838103825284818151815260200191508051906020019060200280838360005b83811015610371578082015181840152602081019050610356565b5050505090500194505050505060405180910390f35b34801561039357600080fd5b50610477600480360381019080803590602001908201803590602001908080601f0160208091040260200160405190810160405280939291908181526020018383808284378201915050505050509192919290803590602001908201803590602001908080601f016020809104026020016040519081016040528093929190818152602001838380828437820191505050505050919291929080359060200190820180359060200190808060200260200160405190810160405280939291908181526020018383602002808284378201915050505050509192919290505050610d93565b005b34801561048557600080fd5b506104ba600480360381019080803573ffffffffffffffffffffffffffffffffffffffff169060200190929190505050611280565b005b3480156104c857600080fd5b506104fd600480360381019080803573ffffffffffffffffffffffffffffffffffffffff169060200190929190505050611389565b005b600060159054906101000a900460ff1681565b6000809054906101000a900473ffffffffffffffffffffffffffffffffffffffff1673ffffffffffffffffffffffffffffffffffffffff163373ffffffffffffffffffffffffffffffffffffffff1614151561056d57600080fd5b600060149054906101000a900460ff16151561058857600080fd5b60008060146101000a81548160ff0219169083151502179055507f7805862f689e2f13df9f062ff482ad3ad112aca9e0847911ed832e158c525b3360405160405180910390a1565b60606105da6114ea565b600060149054906101000a900460ff161515156105f657600080fd5b60006001856040518082805190602001908083835b602083101515610630578051825260208201915060208101905060208303925061060b565b6001836020036101000a0380198251168184511680821785525050505050509050019150509081526020016040518091039020600101805490501415156106df576040517f08c379a00000000000000000000000000000000000000000000000000000000081526004018080602001828103825260208152602001807f4d616e69666573746174696f6e20616c7265616479207265676973746572656481525060200191505060405180910390fd5b600160405190808252806020026020018201604052801561070f5781602001602082028038833980820191505090505b5091503382600081518110151561072257fe5b9060200190602002019073ffffffffffffffffffffffffffffffffffffffff16908173ffffffffffffffffffffffffffffffffffffffff16815250506040805190810160405280848152602001838152509050806001856040518082805190602001908083835b6020831015156107ae5780518252602082019150602081019050602083039250610789565b6001836020036101000a038019825116818451168082178552505050505050905001915050908152602001604051809103902060008201518160000190805190602001906107fd929190611504565b50602082015181600101908051906020019061081a929190611584565b509050503373ffffffffffffffffffffffffffffffffffffffff167f8d7b5e109e9298bae0d307682a43e11fef8fd9dfa48d5292163afeffc002a21585858560405180806020018060200180602001848103845287818151815260200191508051906020019080838360005b838110156108a1578082015181840152602081019050610886565b50505050905090810190601f1680156108ce5780820380516001836020036101000a031916815260200191505b50848103835286818151815260200191508051906020019080838360005b838110156109075780820151818401526020810190506108ec565b50505050905090810190601f1680156109345780820380516001836020036101000a031916815260200191505b50848103825285818151815260200191508051906020019060200280838360005b83811015610970578082015181840152602081019050610955565b50505050905001965050505050505060405180910390a250505050565b600060149054906101000a900460ff1681565b6000809054906101000a900473ffffffffffffffffffffffffffffffffffffffff1673ffffffffffffffffffffffffffffffffffffffff163373ffffffffffffffffffffffffffffffffffffffff161415156109fb57600080fd5b6000809054906101000a900473ffffffffffffffffffffffffffffffffffffffff1673ffffffffffffffffffffffffffffffffffffffff167ff8df31144d9c2f0f6b59d69b8b98abd5459d07f2742c4df920b25aae33c6482060405160405180910390a260008060006101000a81548173ffffffffffffffffffffffffffffffffffffffff021916908373ffffffffffffffffffffffffffffffffffffffff160217905550565b6000809054906101000a900473ffffffffffffffffffffffffffffffffffffffff1673ffffffffffffffffffffffffffffffffffffffff163373ffffffffffffffffffffffffffffffffffffffff16141515610afd57600080fd5b600060149054906101000a900460ff16151515610b1957600080fd5b6001600060146101000a81548160ff0219169083151502179055507f6985a02210a168e66602d3235cb6db0e70f92b3ba4d376a33c0f3d9434bff62560405160405180910390a1565b6000809054906101000a900473ffffffffffffffffffffffffffffffffffffffff1681565b6060806001836040518082805190602001908083835b602083101515610bc25780518252602082019150602081019050602083039250610b9d565b6001836020036101000a03801982511681845116808217855250505050505090500191505090815260200160405180910390206000016001846040518082805190602001908083835b602083101515610c305780518252602082019150602081019050602083039250610c0b565b6001836020036101000a0380198251168184511680821785525050505050509050019150509081526020016040518091039020600101818054600181600116156101000203166002900480601f016020809104026020016040519081016040528092919081815260200182805460018160011615610100020316600290048015610cfb5780601f10610cd057610100808354040283529160200191610cfb565b820191906000526020600020905b815481529060010190602001808311610cde57829003601f168201915b5050505050915080805480602002602001604051908101604052809291908181526020018280548015610d8357602002820191906000526020600020905b8160009054906101000a900473ffffffffffffffffffffffffffffffffffffffff1673ffffffffffffffffffffffffffffffffffffffff1681526020019060010190808311610d39575b5050505050905091509150915091565b60606000610d9f6114ea565b600060149054906101000a900460ff16151515610dbb57600080fd5b60006001876040518082805190602001908083835b602083101515610df55780518252602082019150602081019050602083039250610dd0565b6001836020036101000a038019825116818451168082178552505050505050905001915050908152602001604051809103902060010180549050141515610ea4576040517f08c379a00000000000000000000000000000000000000000000000000000000081526004018080602001828103825260208152602001807f4d616e69666573746174696f6e20616c7265616479207265676973746572656481525060200191505060405180910390fd5b6101008451101515610f44576040517f08c379a00000000000000000000000000000000000000000000000000000000081526004018080602001828103825260278152602001807f4a6f696e7420617574686f7273686970206c696d6974656420746f203235362081526020017f617574686f72730000000000000000000000000000000000000000000000000081525060400191505060405180910390fd5b6001845101604051908082528060200260200182016040528015610f775781602001602082028038833980820191505090505b50925033836000815181101515610f8a57fe5b9060200190602002019073ffffffffffffffffffffffffffffffffffffffff16908173ffffffffffffffffffffffffffffffffffffffff1681525050600091505b83518260ff16101561104f57838260ff16815181101515610fe857fe5b90602001906020020151836001840160ff1681518110151561100657fe5b9060200190602002019073ffffffffffffffffffffffffffffffffffffffff16908173ffffffffffffffffffffffffffffffffffffffff16815250508180600101925050610fcb565b6040805190810160405280868152602001848152509050806001876040518082805190602001908083835b60208310151561109f578051825260208201915060208101905060208303925061107a565b6001836020036101000a038019825116818451168082178552505050505050905001915050908152602001604051809103902060008201518160000190805190602001906110ee929190611504565b50602082015181600101908051906020019061110b929190611584565b509050503373ffffffffffffffffffffffffffffffffffffffff167f8d7b5e109e9298bae0d307682a43e11fef8fd9dfa48d5292163afeffc002a21587878660405180806020018060200180602001848103845287818151815260200191508051906020019080838360005b83811015611192578082015181840152602081019050611177565b50505050905090810190601f1680156111bf5780820380516001836020036101000a031916815260200191505b50848103835286818151815260200191508051906020019080838360005b838110156111f85780820151818401526020810190506111dd565b50505050905090810190601f1680156112255780820380516001836020036101000a031916815260200191505b50848103825285818151815260200191508051906020019060200280838360005b83811015611261578082015181840152602081019050611246565b50505050905001965050505050505060405180910390a2505050505050565b600060159054906101000a900460ff1615151561132b576040517f08c379a000000000000000000000000000000000000000000000000000000000815260040180806020018281038252602e8152602001807f436f6e747261637420696e7374616e63652068617320616c726561647920626581526020017f656e20696e697469616c697a656400000000000000000000000000000000000081525060400191505060405180910390fd5b806000806101000a81548173ffffffffffffffffffffffffffffffffffffffff021916908373ffffffffffffffffffffffffffffffffffffffff1602179055506001600060156101000a81548160ff02191690831515021790555050565b6000809054906101000a900473ffffffffffffffffffffffffffffffffffffffff1673ffffffffffffffffffffffffffffffffffffffff163373ffffffffffffffffffffffffffffffffffffffff161415156113e457600080fd5b6113ed816113f0565b50565b600073ffffffffffffffffffffffffffffffffffffffff168173ffffffffffffffffffffffffffffffffffffffff161415151561142c57600080fd5b8073ffffffffffffffffffffffffffffffffffffffff166000809054906101000a900473ffffffffffffffffffffffffffffffffffffffff1673ffffffffffffffffffffffffffffffffffffffff167f8be0079c531659141344cd1fd0a4f28419497f9722a3daafe3b4186f6b6457e060405160405180910390a3806000806101000a81548173ffffffffffffffffffffffffffffffffffffffff021916908373ffffffffffffffffffffffffffffffffffffffff16021790555050565b604080519081016040528060608152602001606081525090565b828054600181600116156101000203166002900490600052602060002090601f016020900481019282601f1061154557805160ff1916838001178555611573565b82800160010185558215611573579182015b82811115611572578251825591602001919060010190611557565b5b509050611580919061160e565b5090565b8280548282559060005260206000209081019282156115fd579160200282015b828111156115fc5782518260006101000a81548173ffffffffffffffffffffffffffffffffffffffff021916908373ffffffffffffffffffffffffffffffffffffffff160217905550916020019190600101906115a4565b5b50905061160a9190611633565b5090565b61163091905b8082111561162c576000816000905550600101611614565b5090565b90565b61167391905b8082111561166f57600081816101000a81549073ffffffffffffffffffffffffffffffffffffffff021916905550600101611639565b5090565b905600a165627a7a72305820e67ec95db1aea3001578ffe4341307d176a7d1115500070e1022407302ff86100029",
  "source": "pragma solidity ^0.4.24;\n\nimport \"zos-lib/contracts/migrations/Initializable.sol\";\nimport \"openzeppelin-solidity/contracts/lifecycle/Pausable.sol\";\nimport \"zos-lib/contracts/upgradeability/AdminUpgradeabilityProxy.sol\";\n\n\n/// @title Registry contract for copyright registration and authorship evidence storage\n/// @author Roberto García (http://rhizomik.net/~roberto/)\ncontract Registry is Pausable, Initializable {\n\n    struct Manifestation {\n        string title;\n        address[] authors;\n    }\n\n    event ManifestEvent(string hash, string title, address[] authors, address indexed manifester);\n\n    mapping(string => Manifestation) private manifestations;\n\n    function initialize(address _owner) public isInitializer {\n        owner = _owner;\n    }\n\n    /// @notice Register single authorship for `msg.sender` of the manifestation with title `title`\n    /// and hash `hash`. Requires hash not previously registered.\n    /// @dev To be used when their is just one author, which is considered to be the message sender\n    /// @param hash Hash of the manifestation content, for instance IPFS Base58 Hash\n    /// @param title The title of the manifestation\n    function manifestAuthorship(string hash, string title) public whenNotPaused() {\n        require(manifestations[hash].authors.length == 0, \"Manifestation already registered\");\n        address[] memory authors = new address[](1);\n        authors[0] = msg.sender;\n        Manifestation memory manifestation = Manifestation(title, authors);\n        manifestations[hash] = manifestation;\n        emit ManifestEvent(hash, title, authors, msg.sender);\n    }\n\n    /// @notice Register joint authorship for `msg.sender` plus additional authors\n    /// `additionalAuthors` of the manifestation with title `title` and hash `hash`.\n    /// Requires hash not previously registered and at most 256 authors, including the one registering.\n    /// @dev To be used when their is just one author, which is considered to be the message sender\n    /// @param hash Hash of the manifestation content, for instance IPFS Base58 Hash\n    /// @param title The title of the manifestation\n    /// @param additionalAuthors The additional authors,\n    /// including the one registering that becomes the first author\n    function manifestJointAuthorship(string hash, string title, address[] additionalAuthors)\n    public whenNotPaused() {\n        require(manifestations[hash].authors.length == 0, \"Manifestation already registered\");\n        require(additionalAuthors.length < 256, \"Joint authorship limited to 256 authors\");\n        address[] memory authors = new address[](additionalAuthors.length + 1);\n        authors[0] = msg.sender;\n        for (uint8 i = 0; i < additionalAuthors.length; i++)\n            authors[i+1] = additionalAuthors[i];\n        Manifestation memory manifestation = Manifestation(title, authors);\n        manifestations[hash] = manifestation;\n        emit ManifestEvent(hash, title, authors, msg.sender);\n    }\n\n    /// @notice Retrieve the title and authors of the manifestation with content hash `hash`.\n    /// @param hash Hash of the manifestation content, for instance IPFS Base58 Hash\n    /// @return The title and authors of the manifestation\n    function getManifestation(string hash) public constant\n    returns (string title, address[] authors) {\n        return (manifestations[hash].title, manifestations[hash].authors);\n    }\n\n    /// TODO: Change ownership, ruled by external oracle with role judge. Can change title and authors\n}\n",
  "sourcePath": "/Users/roberto/Proyectos/InVID/WP4/copyrightly.eth/contracts/Registry.sol",
  "compiler": {
    "name": "solc",
    "version": "0.4.24+commit.e67f0147.Emscripten.clang"
  },
  "schemaVersion": "2.0.1",
  "updatedAt": "2018-08-16T08:14:50.871Z"
}