{
  "contractName": "YouTubeEvidences",
  "abi": [
    {
      "constant": true,
      "inputs": [
        {
          "name": "",
          "type": "bytes32"
        }
      ],
      "name": "evidences",
      "outputs": [
        {
          "name": "hash",
          "type": "string"
        },
        {
          "name": "videoId",
          "type": "string"
        },
        {
          "name": "isPending",
          "type": "bool"
        },
        {
          "name": "isVerified",
          "type": "bool"
        }
      ],
      "payable": false,
      "stateMutability": "view",
      "type": "function"
    },
    {
      "inputs": [],
      "payable": false,
      "stateMutability": "nonpayable",
      "type": "constructor"
    },
    {
      "anonymous": false,
      "inputs": [
        {
          "indexed": false,
          "name": "query",
          "type": "string"
        }
      ],
      "name": "OraclizeQuery",
      "type": "event"
    },
    {
      "anonymous": false,
      "inputs": [
        {
          "indexed": false,
          "name": "evidenceId",
          "type": "bytes32"
        },
        {
          "indexed": true,
          "name": "hash",
          "type": "string"
        },
        {
          "indexed": true,
          "name": "videoId",
          "type": "string"
        }
      ],
      "name": "YouTubeEvidenceEvent",
      "type": "event"
    },
    {
      "constant": false,
      "inputs": [
        {
          "name": "evidenceId",
          "type": "bytes32"
        },
        {
          "name": "properLinksCount",
          "type": "string"
        }
      ],
      "name": "__callback",
      "outputs": [],
      "payable": false,
      "stateMutability": "nonpayable",
      "type": "function"
    },
    {
      "constant": false,
      "inputs": [
        {
          "name": "myid",
          "type": "bytes32"
        },
        {
          "name": "result",
          "type": "string"
        },
        {
          "name": "proof",
          "type": "bytes"
        }
      ],
      "name": "__callback",
      "outputs": [],
      "payable": false,
      "stateMutability": "nonpayable",
      "type": "function"
    },
    {
      "constant": false,
      "inputs": [
        {
          "name": "hash",
          "type": "string"
        },
        {
          "name": "videoId",
          "type": "string"
        }
      ],
      "name": "check",
      "outputs": [
        {
          "name": "",
          "type": "bytes32"
        }
      ],
      "payable": true,
      "stateMutability": "payable",
      "type": "function"
    }
  ],
  "bytecode": "0x608060405234801561001057600080fd5b50739515d3c99afa4cdf9a8ce6674e5ce1cfcb6ea88b6000806101000a81548173ffffffffffffffffffffffffffffffffffffffff021916908373ffffffffffffffffffffffffffffffffffffffff16021790555061250f806100746000396000f300608060405260043610610062576000357c0100000000000000000000000000000000000000000000000000000000900463ffffffff16806327dc297e1461006757806338bbfa50146100de578063725dbc401461019b578063d84c09de14610259575b600080fd5b34801561007357600080fd5b506100dc6004803603810190808035600019169060200190929190803590602001908201803590602001908080601f0160208091040260200160405190810160405280939291908181526020018383808284378201915050505050509192919290505050610385565b005b3480156100ea57600080fd5b506101996004803603810190808035600019169060200190929190803590602001908201803590602001908080601f0160208091040260200160405190810160405280939291908181526020018383808284378201915050505050509192919290803590602001908201803590602001908080601f01602080910402602001604051908101604052809392919081815260200183838082843782019150505050505091929192905050506105cc565b005b61023b600480360381019080803590602001908201803590602001908080601f0160208091040260200160405190810160405280939291908181526020018383808284378201915050505050509192919290803590602001908201803590602001908080601f01602080910402602001604051908101604052809392919081815260200183838082843782019150505050505091929192905050506105d1565b60405180826000191660001916815260200191505060405180910390f35b34801561026557600080fd5b506102886004803603810190808035600019169060200190929190505050610992565b6040518080602001806020018515151515815260200184151515158152602001838103835287818151815260200191508051906020019080838360005b838110156102e05780820151818401526020810190506102c5565b50505050905090810190601f16801561030d5780820380516001836020036101000a031916815260200191505b50838103825286818151815260200191508051906020019080838360005b8381101561034657808201518184015260208101905061032b565b50505050905090810190601f1680156103735780820380516001836020036101000a031916815260200191505b50965050505050505060405180910390f35b61038d610b0c565b73ffffffffffffffffffffffffffffffffffffffff163373ffffffffffffffffffffffffffffffffffffffff161415156103c657600080fd5b60056000836000191660001916815260200190815260200160002060020160009054906101000a900460ff1615156103fd57600080fd5b600061040882610e6a565b111561059157600160056000846000191660001916815260200190815260200160002060020160016101000a81548160ff02191690831515021790555060056000836000191660001916815260200190815260200160002060010160405180828054600181600116156101000203166002900480156104be5780601f1061049c5761010080835404028352918201916104be565b820191906000526020600020905b8154815290600101906020018083116104aa575b5050915050604051809103902060056000846000191660001916815260200190815260200160002060000160405180828054600181600116156101000203166002900480156105445780601f10610522576101008083540402835291820191610544565b820191906000526020600020905b815481529060010190602001808311610530575b505091505060405180910390207f36f7cec3a6991e6d862a0409e4af1256cf84452927b2784cab56c2a91ab47f058460405180826000191660001916815260200191505060405180910390a35b600060056000846000191660001916815260200190815260200160002060020160006101000a81548160ff0219169083151502179055505050565b505050565b6000606060003073ffffffffffffffffffffffffffffffffffffffff163161062d6040805190810160405280600381526020017f55524c0000000000000000000000000000000000000000000000000000000000815250610e7e565b1115156106c8576040517f08c379a00000000000000000000000000000000000000000000000000000000081526004018080602001828103825260268152602001807f4e6f7420656e6f7567682066756e647320746f2072756e204f7261636c697a6581526020017f207175657279000000000000000000000000000000000000000000000000000081525060400191505060405180910390fd5b6107e8606060405190810160405280602581526020017f68746d6c2868747470733a2f2f7777772e796f75747562652e636f6d2f77617481526020017f63683f763d00000000000000000000000000000000000000000000000000000081525085608060405190810160405280604481526020017f292e787061746828636f756e74282f2f6469765b636f6e7461696e732840696481526020017f2c276465736372697074696f6e27295d2f2f615b636f6e7461696e732840687281526020017f65662c2700000000000000000000000000000000000000000000000000000000815250886040805190810160405280600581526020017f27295d292900000000000000000000000000000000000000000000000000000081525061124e565b91507fd7789a3deb1d0944b7966c5d18037fc5b3a0a17236de9e7c20fe3a6345167295826040518080602001828103825283818151815260200191508051906020019080838360005b8381101561084c578082015181840152602081019050610831565b50505050905090810190601f1680156108795780820380516001836020036101000a031916815260200191505b509250505060405180910390a16108c56040805190810160405280600381526020017f55524c000000000000000000000000000000000000000000000000000000000081525083611663565b90506080604051908101604052808681526020018581526020016001151581526020016000151581525060056000836000191660001916815260200190815260200160002060008201518160000190805190602001906109269291906123be565b5060208201518160010190805190602001906109439291906123be565b5060408201518160020160006101000a81548160ff02191690831515021790555060608201518160020160016101000a81548160ff021916908315150217905550905050809250505092915050565b6005602052806000526040600020600091509050806000018054600181600116156101000203166002900480601f016020809104026020016040519081016040528092919081815260200182805460018160011615610100020316600290048015610a3e5780601f10610a1357610100808354040283529160200191610a3e565b820191906000526020600020905b815481529060010190602001808311610a2157829003601f168201915b505050505090806001018054600181600116156101000203166002900480601f016020809104026020016040519081016040528092919081815260200182805460018160011615610100020316600290048015610adc5780601f10610ab157610100808354040283529160200191610adc565b820191906000526020600020905b815481529060010190602001808311610abf57829003601f168201915b5050505050908060020160009054906101000a900460ff16908060020160019054906101000a900460ff16905084565b6000806000809054906101000a900473ffffffffffffffffffffffffffffffffffffffff1673ffffffffffffffffffffffffffffffffffffffff161480610b7c57506000610b7a6000809054906101000a900473ffffffffffffffffffffffffffffffffffffffff16611c05565b145b15610b8d57610b8b6000611c10565b505b6000809054906101000a900473ffffffffffffffffffffffffffffffffffffffff1673ffffffffffffffffffffffffffffffffffffffff166338cc48316040518163ffffffff167c0100000000000000000000000000000000000000000000000000000000028152600401602060405180830381600087803b158015610c1257600080fd5b505af1158015610c26573d6000803e3d6000fd5b505050506040513d6020811015610c3c57600080fd5b810190808051906020019092919050505073ffffffffffffffffffffffffffffffffffffffff16600160009054906101000a900473ffffffffffffffffffffffffffffffffffffffff1673ffffffffffffffffffffffffffffffffffffffff16141515610da4576000809054906101000a900473ffffffffffffffffffffffffffffffffffffffff1673ffffffffffffffffffffffffffffffffffffffff166338cc48316040518163ffffffff167c0100000000000000000000000000000000000000000000000000000000028152600401602060405180830381600087803b158015610d2857600080fd5b505af1158015610d3c573d6000803e3d6000fd5b505050506040513d6020811015610d5257600080fd5b8101908080519060200190929190505050600160006101000a81548173ffffffffffffffffffffffffffffffffffffffff021916908373ffffffffffffffffffffffffffffffffffffffff1602179055505b600160009054906101000a900473ffffffffffffffffffffffffffffffffffffffff1673ffffffffffffffffffffffffffffffffffffffff1663c281d19e6040518163ffffffff167c0100000000000000000000000000000000000000000000000000000000028152600401602060405180830381600087803b158015610e2a57600080fd5b505af1158015610e3e573d6000803e3d6000fd5b505050506040513d6020811015610e5457600080fd5b8101908080519060200190929190505050905090565b6000610e77826000611c21565b9050919050565b6000806000809054906101000a900473ffffffffffffffffffffffffffffffffffffffff1673ffffffffffffffffffffffffffffffffffffffff161480610eee57506000610eec6000809054906101000a900473ffffffffffffffffffffffffffffffffffffffff16611c05565b145b15610eff57610efd6000611c10565b505b6000809054906101000a900473ffffffffffffffffffffffffffffffffffffffff1673ffffffffffffffffffffffffffffffffffffffff166338cc48316040518163ffffffff167c0100000000000000000000000000000000000000000000000000000000028152600401602060405180830381600087803b158015610f8457600080fd5b505af1158015610f98573d6000803e3d6000fd5b505050506040513d6020811015610fae57600080fd5b810190808051906020019092919050505073ffffffffffffffffffffffffffffffffffffffff16600160009054906101000a900473ffffffffffffffffffffffffffffffffffffffff1673ffffffffffffffffffffffffffffffffffffffff16141515611116576000809054906101000a900473ffffffffffffffffffffffffffffffffffffffff1673ffffffffffffffffffffffffffffffffffffffff166338cc48316040518163ffffffff167c0100000000000000000000000000000000000000000000000000000000028152600401602060405180830381600087803b15801561109a57600080fd5b505af11580156110ae573d6000803e3d6000fd5b505050506040513d60208110156110c457600080fd5b8101908080519060200190929190505050600160006101000a81548173ffffffffffffffffffffffffffffffffffffffff021916908373ffffffffffffffffffffffffffffffffffffffff1602179055505b600160009054906101000a900473ffffffffffffffffffffffffffffffffffffffff1673ffffffffffffffffffffffffffffffffffffffff1663524f3889836040518263ffffffff167c01000000000000000000000000000000000000000000000000000000000281526004018080602001828103825283818151815260200191508051906020019080838360005b838110156111c05780820151818401526020810190506111a5565b50505050905090810190601f1680156111ed5780820380516001836020036101000a031916815260200191505b5092505050602060405180830381600087803b15801561120c57600080fd5b505af1158015611220573d6000803e3d6000fd5b505050506040513d602081101561123657600080fd5b81019080805190602001909291905050509050919050565b6060806060806060806060806000808e98508d97508c96508b95508a94508451865188518a518c51010101016040519080825280601f01601f1916602001820160405280156112ac5781602001602082028038833980820191505090505b50935083925060009150600090505b885181101561136e5788818151811015156112d257fe5b9060200101517f010000000000000000000000000000000000000000000000000000000000000090047f010000000000000000000000000000000000000000000000000000000000000002838380600101945081518110151561133157fe5b9060200101907effffffffffffffffffffffffffffffffffffffffffffffffffffffffffffff1916908160001a90535080806001019150506112bb565b600090505b875181101561142657878181518110151561138a57fe5b9060200101517f010000000000000000000000000000000000000000000000000000000000000090047f01000000000000000000000000000000000000000000000000000000000000000283838060010194508151811015156113e957fe5b9060200101907effffffffffffffffffffffffffffffffffffffffffffffffffffffffffffff1916908160001a9053508080600101915050611373565b600090505b86518110156114de57868181518110151561144257fe5b9060200101517f010000000000000000000000000000000000000000000000000000000000000090047f01000000000000000000000000000000000000000000000000000000000000000283838060010194508151811015156114a157fe5b9060200101907effffffffffffffffffffffffffffffffffffffffffffffffffffffffffffff1916908160001a905350808060010191505061142b565b600090505b85518110156115965785818151811015156114fa57fe5b9060200101517f010000000000000000000000000000000000000000000000000000000000000090047f010000000000000000000000000000000000000000000000000000000000000002838380600101945081518110151561155957fe5b9060200101907effffffffffffffffffffffffffffffffffffffffffffffffffffffffffffff1916908160001a90535080806001019150506114e3565b600090505b845181101561164e5784818151811015156115b257fe5b9060200101517f010000000000000000000000000000000000000000000000000000000000000090047f010000000000000000000000000000000000000000000000000000000000000002838380600101945081518110151561161157fe5b9060200101907effffffffffffffffffffffffffffffffffffffffffffffffffffffffffffff1916908160001a905350808060010191505061159b565b82995050505050505050505095945050505050565b60008060008060009054906101000a900473ffffffffffffffffffffffffffffffffffffffff1673ffffffffffffffffffffffffffffffffffffffff1614806116d5575060006116d36000809054906101000a900473ffffffffffffffffffffffffffffffffffffffff16611c05565b145b156116e6576116e46000611c10565b505b6000809054906101000a900473ffffffffffffffffffffffffffffffffffffffff1673ffffffffffffffffffffffffffffffffffffffff166338cc48316040518163ffffffff167c0100000000000000000000000000000000000000000000000000000000028152600401602060405180830381600087803b15801561176b57600080fd5b505af115801561177f573d6000803e3d6000fd5b505050506040513d602081101561179557600080fd5b810190808051906020019092919050505073ffffffffffffffffffffffffffffffffffffffff16600160009054906101000a900473ffffffffffffffffffffffffffffffffffffffff1673ffffffffffffffffffffffffffffffffffffffff161415156118fd576000809054906101000a900473ffffffffffffffffffffffffffffffffffffffff1673ffffffffffffffffffffffffffffffffffffffff166338cc48316040518163ffffffff167c0100000000000000000000000000000000000000000000000000000000028152600401602060405180830381600087803b15801561188157600080fd5b505af1158015611895573d6000803e3d6000fd5b505050506040513d60208110156118ab57600080fd5b8101908080519060200190929190505050600160006101000a81548173ffffffffffffffffffffffffffffffffffffffff021916908373ffffffffffffffffffffffffffffffffffffffff1602179055505b600160009054906101000a900473ffffffffffffffffffffffffffffffffffffffff1673ffffffffffffffffffffffffffffffffffffffff1663524f3889856040518263ffffffff167c01000000000000000000000000000000000000000000000000000000000281526004018080602001828103825283818151815260200191508051906020019080838360005b838110156119a757808201518184015260208101905061198c565b50505050905090810190601f1680156119d45780820380516001836020036101000a031916815260200191505b5092505050602060405180830381600087803b1580156119f357600080fd5b505af1158015611a07573d6000803e3d6000fd5b505050506040513d6020811015611a1d57600080fd5b8101908080519060200190929190505050905062030d403a02670de0b6b3a764000001811115611a535760006001029150611bfe565b600160009054906101000a900473ffffffffffffffffffffffffffffffffffffffff1673ffffffffffffffffffffffffffffffffffffffff1663adf59f9982600087876040518563ffffffff167c0100000000000000000000000000000000000000000000000000000000028152600401808481526020018060200180602001838103835285818151815260200191508051906020019080838360005b83811015611b0b578082015181840152602081019050611af0565b50505050905090810190601f168015611b385780820380516001836020036101000a031916815260200191505b50838103825284818151815260200191508051906020019080838360005b83811015611b71578082015181840152602081019050611b56565b50505050905090810190601f168015611b9e5780820380516001836020036101000a031916815260200191505b50955050505050506020604051808303818588803b158015611bbf57600080fd5b505af1158015611bd3573d6000803e3d6000fd5b50505050506040513d6020811015611bea57600080fd5b810190808051906020019092919050505091505b5092915050565b6000813b9050919050565b6000611c1a611f15565b9050919050565b6000606060008060008693506000925060009150600090505b8351811015611ef65760307f0100000000000000000000000000000000000000000000000000000000000000028482815181101515611c7557fe5b9060200101517f010000000000000000000000000000000000000000000000000000000000000090047f0100000000000000000000000000000000000000000000000000000000000000027effffffffffffffffffffffffffffffffffffffffffffffffffffffffffffff191610158015611d8d575060397f0100000000000000000000000000000000000000000000000000000000000000028482815181101515611d1d57fe5b9060200101517f010000000000000000000000000000000000000000000000000000000000000090047f0100000000000000000000000000000000000000000000000000000000000000027effffffffffffffffffffffffffffffffffffffffffffffffffffffffffffff191611155b15611e3e578115611db0576000861415611da657611ef6565b8580600190039650505b600a8302925060308482815181101515611dc657fe5b9060200101517f010000000000000000000000000000000000000000000000000000000000000090047f0100000000000000000000000000000000000000000000000000000000000000027f010000000000000000000000000000000000000000000000000000000000000090040383019250611ee9565b602e7f0100000000000000000000000000000000000000000000000000000000000000028482815181101515611e7057fe5b9060200101517f010000000000000000000000000000000000000000000000000000000000000090047f0100000000000000000000000000000000000000000000000000000000000000027effffffffffffffffffffffffffffffffffffffffffffffffffffffffffffff19161415611ee857600191505b5b8080600101915050611c3a565b6000861115611f085785600a0a830292505b8294505050505092915050565b600080611f35731d3b2638a7cc9f2cb3d298a3da7a90b67e5506ed611c05565b1115611fd657731d3b2638a7cc9f2cb3d298a3da7a90b67e5506ed6000806101000a81548173ffffffffffffffffffffffffffffffffffffffff021916908373ffffffffffffffffffffffffffffffffffffffff160217905550611fcd6040805190810160405280600b81526020017f6574685f6d61696e6e65740000000000000000000000000000000000000000008152506123a4565b600190506123a1565b6000611ff573c03a2615d5efaf5f49f60b7bb6583eaec212fdf1611c05565b11156120965773c03a2615d5efaf5f49f60b7bb6583eaec212fdf16000806101000a81548173ffffffffffffffffffffffffffffffffffffffff021916908373ffffffffffffffffffffffffffffffffffffffff16021790555061208d6040805190810160405280600c81526020017f6574685f726f707374656e3300000000000000000000000000000000000000008152506123a4565b600190506123a1565b60006120b573b7a07bcf2ba2f2703b24c0691b5278999c59ac7e611c05565b11156121565773b7a07bcf2ba2f2703b24c0691b5278999c59ac7e6000806101000a81548173ffffffffffffffffffffffffffffffffffffffff021916908373ffffffffffffffffffffffffffffffffffffffff16021790555061214d6040805190810160405280600981526020017f6574685f6b6f76616e00000000000000000000000000000000000000000000008152506123a4565b600190506123a1565b600061217573146500cfd35b22e4a392fe0adc06de1a1368ed48611c05565b11156122165773146500cfd35b22e4a392fe0adc06de1a1368ed486000806101000a81548173ffffffffffffffffffffffffffffffffffffffff021916908373ffffffffffffffffffffffffffffffffffffffff16021790555061220d6040805190810160405280600b81526020017f6574685f72696e6b6562790000000000000000000000000000000000000000008152506123a4565b600190506123a1565b6000612235736f485c8bf6fc43ea212e93bbf8ce046c7f1cb475611c05565b111561229857736f485c8bf6fc43ea212e93bbf8ce046c7f1cb4756000806101000a81548173ffffffffffffffffffffffffffffffffffffffff021916908373ffffffffffffffffffffffffffffffffffffffff160217905550600190506123a1565b60006122b77320e12a1f859b3feae5fb2a0a32c18f5a65555bbf611c05565b111561231a577320e12a1f859b3feae5fb2a0a32c18f5a65555bbf6000806101000a81548173ffffffffffffffffffffffffffffffffffffffff021916908373ffffffffffffffffffffffffffffffffffffffff160217905550600190506123a1565b60006123397351efaf4c8b3c9afbd5ab9f4bbc82784ab6ef8faa611c05565b111561239c577351efaf4c8b3c9afbd5ab9f4bbc82784ab6ef8faa6000806101000a81548173ffffffffffffffffffffffffffffffffffffffff021916908373ffffffffffffffffffffffffffffffffffffffff160217905550600190506123a1565b600090505b90565b80600290805190602001906123ba92919061243e565b5050565b828054600181600116156101000203166002900490600052602060002090601f016020900481019282601f106123ff57805160ff191683800117855561242d565b8280016001018555821561242d579182015b8281111561242c578251825591602001919060010190612411565b5b50905061243a91906124be565b5090565b828054600181600116156101000203166002900490600052602060002090601f016020900481019282601f1061247f57805160ff19168380011785556124ad565b828001600101855582156124ad579182015b828111156124ac578251825591602001919060010190612491565b5b5090506124ba91906124be565b5090565b6124e091905b808211156124dc5760008160009055506001016124c4565b5090565b905600a165627a7a723058209abe0b7d03cf24fe97756907ae5acce197f23aeec6c5a51f1483168e202bde620029",
  "source": "pragma solidity ^0.4.24;\n\nimport \"oraclize-api/usingOraclize.sol\";\n\ncontract YouTubeEvidences is usingOraclize {\n    string constant HTML = \"html(https://www.youtube.com/watch?v=\";\n    string constant XPATH = \").xpath(count(//div[contains(@id,'description')]//a[contains(@href,'\";\n\n    mapping(bytes32=>YouTubeEvidence) public evidences;\n\n    struct YouTubeEvidence {\n        string hash;\n        string videoId;\n        bool isPending;\n        bool isVerified;\n    }\n\n    event OraclizeQuery(string query);\n    event YouTubeEvidenceEvent(bytes32 evidenceId, string indexed hash, string indexed videoId);\n\n    constructor() {\n        OAR = OraclizeAddrResolverI(0x9515d3C99AFa4CdF9a8CE6674e5ce1cFcb6eA88b);\n    }\n\n    function __callback(bytes32 evidenceId, string properLinksCount) {\n        require(msg.sender == oraclize_cbAddress());\n        require(evidences[evidenceId].isPending);\n        if (parseInt(properLinksCount) > 0) {\n            evidences[evidenceId].isVerified = true;\n            emit YouTubeEvidenceEvent(evidenceId, evidences[evidenceId].hash, evidences[evidenceId].videoId);\n        }\n        evidences[evidenceId].isPending = false;\n    }\n\n    function check(string hash, string videoId) public payable returns (bytes32) {\n        require(oraclize_getPrice(\"URL\") > this.balance, \"Not enough funds to run Oraclize query\");\n        string memory query = strConcat(HTML, videoId, XPATH, hash, \"')]))\");\n        emit OraclizeQuery(query);\n        bytes32 evidenceId = oraclize_query(\"URL\", query);\n        evidences[evidenceId] = YouTubeEvidence(hash, videoId, true, false);\n        return evidenceId;\n    }\n}\n",
  "sourcePath": "/Users/roberto/Proyectos/InVID/WP4/copyrightly.eth/contracts/YouTubeEvidences.sol",
  "compiler": {
    "name": "solc",
    "version": "0.4.24+commit.e67f0147.Emscripten.clang"
  },
  "schemaVersion": "2.0.1",
  "updatedAt": "2018-08-24T07:09:40.855Z"
}