{
  "contractName": "YouTubeEvidences",
  "abi": [
    {
      "constant": true,
      "inputs": [
        {
          "name": "",
          "type": "bytes32"
        }
      ],
      "name": "evidences",
      "outputs": [
        {
          "name": "registry",
          "type": "address"
        },
        {
          "name": "evidencedId",
          "type": "string"
        },
        {
          "name": "videoId",
          "type": "string"
        },
        {
          "name": "isPending",
          "type": "bool"
        },
        {
          "name": "isVerified",
          "type": "bool"
        }
      ],
      "payable": false,
      "stateMutability": "view",
      "type": "function"
    },
    {
      "inputs": [],
      "payable": false,
      "stateMutability": "nonpayable",
      "type": "constructor"
    },
    {
      "anonymous": false,
      "inputs": [
        {
          "indexed": false,
          "name": "query",
          "type": "string"
        }
      ],
      "name": "OraclizeQuery",
      "type": "event"
    },
    {
      "anonymous": false,
      "inputs": [
        {
          "indexed": false,
          "name": "evidenceId",
          "type": "bytes32"
        },
        {
          "indexed": true,
          "name": "evidencedIdHash",
          "type": "bytes32"
        },
        {
          "indexed": false,
          "name": "videoId",
          "type": "string"
        }
      ],
      "name": "YouTubeEvidenceEvent",
      "type": "event"
    },
    {
      "constant": false,
      "inputs": [
        {
          "name": "evidenceId",
          "type": "bytes32"
        },
        {
          "name": "properLinksCount",
          "type": "string"
        }
      ],
      "name": "__callback",
      "outputs": [],
      "payable": false,
      "stateMutability": "nonpayable",
      "type": "function"
    },
    {
      "constant": false,
      "inputs": [
        {
          "name": "myid",
          "type": "bytes32"
        },
        {
          "name": "result",
          "type": "string"
        },
        {
          "name": "proof",
          "type": "bytes"
        }
      ],
      "name": "__callback",
      "outputs": [],
      "payable": false,
      "stateMutability": "nonpayable",
      "type": "function"
    },
    {
      "constant": false,
      "inputs": [
        {
          "name": "registry",
          "type": "address"
        },
        {
          "name": "evidencedId",
          "type": "string"
        },
        {
          "name": "videoId",
          "type": "string"
        }
      ],
      "name": "check",
      "outputs": [
        {
          "name": "",
          "type": "bytes32"
        }
      ],
      "payable": true,
      "stateMutability": "payable",
      "type": "function"
    }
  ],
  "bytecode": "0x608060405234801561001057600080fd5b506126d9806100206000396000f300608060405260043610610062576000357c0100000000000000000000000000000000000000000000000000000000900463ffffffff16806327dc297e1461006757806338bbfa50146100de57806361056bca1461019b578063d84c09de14610279575b600080fd5b34801561007357600080fd5b506100dc6004803603810190808035600019169060200190929190803590602001908201803590602001908080601f01602080910402602001604051908101604052809392919081815260200183838082843782019150505050505091929192905050506103d8565b005b3480156100ea57600080fd5b506101996004803603810190808035600019169060200190929190803590602001908201803590602001908080601f0160208091040260200160405190810160405280939291908181526020018383808284378201915050505050509192919290803590602001908201803590602001908080601f01602080910402602001604051908101604052809392919081815260200183838082843782019150505050505091929192905050506107a8565b005b61025b600480360381019080803573ffffffffffffffffffffffffffffffffffffffff169060200190929190803590602001908201803590602001908080601f0160208091040260200160405190810160405280939291908181526020018383808284378201915050505050509192919290803590602001908201803590602001908080601f01602080910402602001604051908101604052809392919081815260200183838082843782019150505050505091929192905050506107ad565b60405180826000191660001916815260200191505060405180910390f35b34801561028557600080fd5b506102a86004803603810190808035600019169060200190929190505050610b36565b604051808673ffffffffffffffffffffffffffffffffffffffff1673ffffffffffffffffffffffffffffffffffffffff16815260200180602001806020018515151515815260200184151515158152602001838103835287818151815260200191508051906020019080838360005b83811015610332578082015181840152602081019050610317565b50505050905090810190601f16801561035f5780820380516001836020036101000a031916815260200191505b50838103825286818151815260200191508051906020019080838360005b8381101561039857808201518184015260208101905061037d565b50505050905090810190601f1680156103c55780820380516001836020036101000a031916815260200191505b5097505050505050505060405180910390f35b6103e0610cd6565b73ffffffffffffffffffffffffffffffffffffffff163373ffffffffffffffffffffffffffffffffffffffff1614151561041957600080fd5b60056000836000191660001916815260200190815260200160002060030160009054906101000a900460ff16151561045057600080fd5b600061045b82611034565b111561076d57600160056000846000191660001916815260200190815260200160002060030160016101000a81548160ff02191690831515021790555060056000836000191660001916815260200190815260200160002060000160009054906101000a900473ffffffffffffffffffffffffffffffffffffffff1673ffffffffffffffffffffffffffffffffffffffff166351a94a5f6005600085600019166000191681526020019081526020016000206001016040518263ffffffff167c010000000000000000000000000000000000000000000000000000000002815260040180806020018281038252838181546001816001161561010002031660029004815260200191508054600181600116156101000203166002900480156105c45780601f10610599576101008083540402835291602001916105c4565b820191906000526020600020905b8154815290600101906020018083116105a757829003601f168201915b505092505050600060405180830381600087803b1580156105e457600080fd5b505af11580156105f8573d6000803e3d6000fd5b5050505060056000836000191660001916815260200190815260200160002060010160405180828054600181600116156101000203166002900480156106755780601f10610653576101008083540402835291820191610675565b820191906000526020600020905b815481529060010190602001808311610661575b50509150506040518091039020600019167f1bdda60d6ee13bc208e01161aae3f7720f511020697d5527ef641be2e22dc04b836005600086600019166000191681526020019081526020016000206002016040518083600019166000191681526020018060200182810382528381815460018160011615610100020316600290048152602001915080546001816001161561010002031660029004801561075d5780601f106107325761010080835404028352916020019161075d565b820191906000526020600020905b81548152906001019060200180831161074057829003601f168201915b5050935050505060405180910390a25b600060056000846000191660001916815260200190815260200160002060030160006101000a81548160ff0219169083151502179055505050565b505050565b6000606060003073ffffffffffffffffffffffffffffffffffffffff16316108096040805190810160405280600381526020017f55524c0000000000000000000000000000000000000000000000000000000000815250611048565b1115156108a4576040517f08c379a00000000000000000000000000000000000000000000000000000000081526004018080602001828103825260268152602001807f4e6f7420656e6f7567682066756e647320746f2072756e204f7261636c697a6581526020017f207175657279000000000000000000000000000000000000000000000000000081525060400191505060405180910390fd5b6109c4606060405190810160405280602581526020017f68746d6c2868747470733a2f2f7777772e796f75747562652e636f6d2f77617481526020017f63683f763d00000000000000000000000000000000000000000000000000000081525085608060405190810160405280604481526020017f292e787061746828636f756e74282f2f6469765b636f6e7461696e732840696481526020017f2c276465736372697074696f6e27295d2f2f615b636f6e7461696e732840687281526020017f65662c2700000000000000000000000000000000000000000000000000000000815250886040805190810160405280600581526020017f27295d2929000000000000000000000000000000000000000000000000000000815250611418565b9150610a056040805190810160405280600381526020017f55524c00000000000000000000000000000000000000000000000000000000008152508361182d565b905060a0604051908101604052808773ffffffffffffffffffffffffffffffffffffffff1681526020018681526020018581526020016001151581526020016000151581525060056000836000191660001916815260200190815260200160002060008201518160000160006101000a81548173ffffffffffffffffffffffffffffffffffffffff021916908373ffffffffffffffffffffffffffffffffffffffff1602179055506020820151816001019080519060200190610ac9929190612588565b506040820151816002019080519060200190610ae6929190612588565b5060608201518160030160006101000a81548160ff02191690831515021790555060808201518160030160016101000a81548160ff02191690831515021790555090505080925050509392505050565b60056020528060005260406000206000915090508060000160009054906101000a900473ffffffffffffffffffffffffffffffffffffffff1690806001018054600181600116156101000203166002900480601f016020809104026020016040519081016040528092919081815260200182805460018160011615610100020316600290048015610c085780601f10610bdd57610100808354040283529160200191610c08565b820191906000526020600020905b815481529060010190602001808311610beb57829003601f168201915b505050505090806002018054600181600116156101000203166002900480601f016020809104026020016040519081016040528092919081815260200182805460018160011615610100020316600290048015610ca65780601f10610c7b57610100808354040283529160200191610ca6565b820191906000526020600020905b815481529060010190602001808311610c8957829003601f168201915b5050505050908060030160009054906101000a900460ff16908060030160019054906101000a900460ff16905085565b6000806000809054906101000a900473ffffffffffffffffffffffffffffffffffffffff1673ffffffffffffffffffffffffffffffffffffffff161480610d4657506000610d446000809054906101000a900473ffffffffffffffffffffffffffffffffffffffff16611dcf565b145b15610d5757610d556000611dda565b505b6000809054906101000a900473ffffffffffffffffffffffffffffffffffffffff1673ffffffffffffffffffffffffffffffffffffffff166338cc48316040518163ffffffff167c0100000000000000000000000000000000000000000000000000000000028152600401602060405180830381600087803b158015610ddc57600080fd5b505af1158015610df0573d6000803e3d6000fd5b505050506040513d6020811015610e0657600080fd5b810190808051906020019092919050505073ffffffffffffffffffffffffffffffffffffffff16600160009054906101000a900473ffffffffffffffffffffffffffffffffffffffff1673ffffffffffffffffffffffffffffffffffffffff16141515610f6e576000809054906101000a900473ffffffffffffffffffffffffffffffffffffffff1673ffffffffffffffffffffffffffffffffffffffff166338cc48316040518163ffffffff167c0100000000000000000000000000000000000000000000000000000000028152600401602060405180830381600087803b158015610ef257600080fd5b505af1158015610f06573d6000803e3d6000fd5b505050506040513d6020811015610f1c57600080fd5b8101908080519060200190929190505050600160006101000a81548173ffffffffffffffffffffffffffffffffffffffff021916908373ffffffffffffffffffffffffffffffffffffffff1602179055505b600160009054906101000a900473ffffffffffffffffffffffffffffffffffffffff1673ffffffffffffffffffffffffffffffffffffffff1663c281d19e6040518163ffffffff167c0100000000000000000000000000000000000000000000000000000000028152600401602060405180830381600087803b158015610ff457600080fd5b505af1158015611008573d6000803e3d6000fd5b505050506040513d602081101561101e57600080fd5b8101908080519060200190929190505050905090565b6000611041826000611deb565b9050919050565b6000806000809054906101000a900473ffffffffffffffffffffffffffffffffffffffff1673ffffffffffffffffffffffffffffffffffffffff1614806110b8575060006110b66000809054906101000a900473ffffffffffffffffffffffffffffffffffffffff16611dcf565b145b156110c9576110c76000611dda565b505b6000809054906101000a900473ffffffffffffffffffffffffffffffffffffffff1673ffffffffffffffffffffffffffffffffffffffff166338cc48316040518163ffffffff167c0100000000000000000000000000000000000000000000000000000000028152600401602060405180830381600087803b15801561114e57600080fd5b505af1158015611162573d6000803e3d6000fd5b505050506040513d602081101561117857600080fd5b810190808051906020019092919050505073ffffffffffffffffffffffffffffffffffffffff16600160009054906101000a900473ffffffffffffffffffffffffffffffffffffffff1673ffffffffffffffffffffffffffffffffffffffff161415156112e0576000809054906101000a900473ffffffffffffffffffffffffffffffffffffffff1673ffffffffffffffffffffffffffffffffffffffff166338cc48316040518163ffffffff167c0100000000000000000000000000000000000000000000000000000000028152600401602060405180830381600087803b15801561126457600080fd5b505af1158015611278573d6000803e3d6000fd5b505050506040513d602081101561128e57600080fd5b8101908080519060200190929190505050600160006101000a81548173ffffffffffffffffffffffffffffffffffffffff021916908373ffffffffffffffffffffffffffffffffffffffff1602179055505b600160009054906101000a900473ffffffffffffffffffffffffffffffffffffffff1673ffffffffffffffffffffffffffffffffffffffff1663524f3889836040518263ffffffff167c01000000000000000000000000000000000000000000000000000000000281526004018080602001828103825283818151815260200191508051906020019080838360005b8381101561138a57808201518184015260208101905061136f565b50505050905090810190601f1680156113b75780820380516001836020036101000a031916815260200191505b5092505050602060405180830381600087803b1580156113d657600080fd5b505af11580156113ea573d6000803e3d6000fd5b505050506040513d602081101561140057600080fd5b81019080805190602001909291905050509050919050565b6060806060806060806060806000808e98508d97508c96508b95508a94508451865188518a518c51010101016040519080825280601f01601f1916602001820160405280156114765781602001602082028038833980820191505090505b50935083925060009150600090505b885181101561153857888181518110151561149c57fe5b9060200101517f010000000000000000000000000000000000000000000000000000000000000090047f01000000000000000000000000000000000000000000000000000000000000000283838060010194508151811015156114fb57fe5b9060200101907effffffffffffffffffffffffffffffffffffffffffffffffffffffffffffff1916908160001a9053508080600101915050611485565b600090505b87518110156115f057878181518110151561155457fe5b9060200101517f010000000000000000000000000000000000000000000000000000000000000090047f01000000000000000000000000000000000000000000000000000000000000000283838060010194508151811015156115b357fe5b9060200101907effffffffffffffffffffffffffffffffffffffffffffffffffffffffffffff1916908160001a905350808060010191505061153d565b600090505b86518110156116a857868181518110151561160c57fe5b9060200101517f010000000000000000000000000000000000000000000000000000000000000090047f010000000000000000000000000000000000000000000000000000000000000002838380600101945081518110151561166b57fe5b9060200101907effffffffffffffffffffffffffffffffffffffffffffffffffffffffffffff1916908160001a90535080806001019150506115f5565b600090505b85518110156117605785818151811015156116c457fe5b9060200101517f010000000000000000000000000000000000000000000000000000000000000090047f010000000000000000000000000000000000000000000000000000000000000002838380600101945081518110151561172357fe5b9060200101907effffffffffffffffffffffffffffffffffffffffffffffffffffffffffffff1916908160001a90535080806001019150506116ad565b600090505b845181101561181857848181518110151561177c57fe5b9060200101517f010000000000000000000000000000000000000000000000000000000000000090047f01000000000000000000000000000000000000000000000000000000000000000283838060010194508151811015156117db57fe5b9060200101907effffffffffffffffffffffffffffffffffffffffffffffffffffffffffffff1916908160001a9053508080600101915050611765565b82995050505050505050505095945050505050565b60008060008060009054906101000a900473ffffffffffffffffffffffffffffffffffffffff1673ffffffffffffffffffffffffffffffffffffffff16148061189f5750600061189d6000809054906101000a900473ffffffffffffffffffffffffffffffffffffffff16611dcf565b145b156118b0576118ae6000611dda565b505b6000809054906101000a900473ffffffffffffffffffffffffffffffffffffffff1673ffffffffffffffffffffffffffffffffffffffff166338cc48316040518163ffffffff167c0100000000000000000000000000000000000000000000000000000000028152600401602060405180830381600087803b15801561193557600080fd5b505af1158015611949573d6000803e3d6000fd5b505050506040513d602081101561195f57600080fd5b810190808051906020019092919050505073ffffffffffffffffffffffffffffffffffffffff16600160009054906101000a900473ffffffffffffffffffffffffffffffffffffffff1673ffffffffffffffffffffffffffffffffffffffff16141515611ac7576000809054906101000a900473ffffffffffffffffffffffffffffffffffffffff1673ffffffffffffffffffffffffffffffffffffffff166338cc48316040518163ffffffff167c0100000000000000000000000000000000000000000000000000000000028152600401602060405180830381600087803b158015611a4b57600080fd5b505af1158015611a5f573d6000803e3d6000fd5b505050506040513d6020811015611a7557600080fd5b8101908080519060200190929190505050600160006101000a81548173ffffffffffffffffffffffffffffffffffffffff021916908373ffffffffffffffffffffffffffffffffffffffff1602179055505b600160009054906101000a900473ffffffffffffffffffffffffffffffffffffffff1673ffffffffffffffffffffffffffffffffffffffff1663524f3889856040518263ffffffff167c01000000000000000000000000000000000000000000000000000000000281526004018080602001828103825283818151815260200191508051906020019080838360005b83811015611b71578082015181840152602081019050611b56565b50505050905090810190601f168015611b9e5780820380516001836020036101000a031916815260200191505b5092505050602060405180830381600087803b158015611bbd57600080fd5b505af1158015611bd1573d6000803e3d6000fd5b505050506040513d6020811015611be757600080fd5b8101908080519060200190929190505050905062030d403a02670de0b6b3a764000001811115611c1d5760006001029150611dc8565b600160009054906101000a900473ffffffffffffffffffffffffffffffffffffffff1673ffffffffffffffffffffffffffffffffffffffff1663adf59f9982600087876040518563ffffffff167c0100000000000000000000000000000000000000000000000000000000028152600401808481526020018060200180602001838103835285818151815260200191508051906020019080838360005b83811015611cd5578082015181840152602081019050611cba565b50505050905090810190601f168015611d025780820380516001836020036101000a031916815260200191505b50838103825284818151815260200191508051906020019080838360005b83811015611d3b578082015181840152602081019050611d20565b50505050905090810190601f168015611d685780820380516001836020036101000a031916815260200191505b50955050505050506020604051808303818588803b158015611d8957600080fd5b505af1158015611d9d573d6000803e3d6000fd5b50505050506040513d6020811015611db457600080fd5b810190808051906020019092919050505091505b5092915050565b6000813b9050919050565b6000611de46120df565b9050919050565b6000606060008060008693506000925060009150600090505b83518110156120c05760307f0100000000000000000000000000000000000000000000000000000000000000028482815181101515611e3f57fe5b9060200101517f010000000000000000000000000000000000000000000000000000000000000090047f0100000000000000000000000000000000000000000000000000000000000000027effffffffffffffffffffffffffffffffffffffffffffffffffffffffffffff191610158015611f57575060397f0100000000000000000000000000000000000000000000000000000000000000028482815181101515611ee757fe5b9060200101517f010000000000000000000000000000000000000000000000000000000000000090047f0100000000000000000000000000000000000000000000000000000000000000027effffffffffffffffffffffffffffffffffffffffffffffffffffffffffffff191611155b15612008578115611f7a576000861415611f70576120c0565b8580600190039650505b600a8302925060308482815181101515611f9057fe5b9060200101517f010000000000000000000000000000000000000000000000000000000000000090047f0100000000000000000000000000000000000000000000000000000000000000027f0100000000000000000000000000000000000000000000000000000000000000900403830192506120b3565b602e7f010000000000000000000000000000000000000000000000000000000000000002848281518110151561203a57fe5b9060200101517f010000000000000000000000000000000000000000000000000000000000000090047f0100000000000000000000000000000000000000000000000000000000000000027effffffffffffffffffffffffffffffffffffffffffffffffffffffffffffff191614156120b257600191505b5b8080600101915050611e04565b60008611156120d25785600a0a830292505b8294505050505092915050565b6000806120ff731d3b2638a7cc9f2cb3d298a3da7a90b67e5506ed611dcf565b11156121a057731d3b2638a7cc9f2cb3d298a3da7a90b67e5506ed6000806101000a81548173ffffffffffffffffffffffffffffffffffffffff021916908373ffffffffffffffffffffffffffffffffffffffff1602179055506121976040805190810160405280600b81526020017f6574685f6d61696e6e657400000000000000000000000000000000000000000081525061256e565b6001905061256b565b60006121bf73c03a2615d5efaf5f49f60b7bb6583eaec212fdf1611dcf565b11156122605773c03a2615d5efaf5f49f60b7bb6583eaec212fdf16000806101000a81548173ffffffffffffffffffffffffffffffffffffffff021916908373ffffffffffffffffffffffffffffffffffffffff1602179055506122576040805190810160405280600c81526020017f6574685f726f707374656e33000000000000000000000000000000000000000081525061256e565b6001905061256b565b600061227f73b7a07bcf2ba2f2703b24c0691b5278999c59ac7e611dcf565b11156123205773b7a07bcf2ba2f2703b24c0691b5278999c59ac7e6000806101000a81548173ffffffffffffffffffffffffffffffffffffffff021916908373ffffffffffffffffffffffffffffffffffffffff1602179055506123176040805190810160405280600981526020017f6574685f6b6f76616e000000000000000000000000000000000000000000000081525061256e565b6001905061256b565b600061233f73146500cfd35b22e4a392fe0adc06de1a1368ed48611dcf565b11156123e05773146500cfd35b22e4a392fe0adc06de1a1368ed486000806101000a81548173ffffffffffffffffffffffffffffffffffffffff021916908373ffffffffffffffffffffffffffffffffffffffff1602179055506123d76040805190810160405280600b81526020017f6574685f72696e6b65627900000000000000000000000000000000000000000081525061256e565b6001905061256b565b60006123ff736f485c8bf6fc43ea212e93bbf8ce046c7f1cb475611dcf565b111561246257736f485c8bf6fc43ea212e93bbf8ce046c7f1cb4756000806101000a81548173ffffffffffffffffffffffffffffffffffffffff021916908373ffffffffffffffffffffffffffffffffffffffff1602179055506001905061256b565b60006124817320e12a1f859b3feae5fb2a0a32c18f5a65555bbf611dcf565b11156124e4577320e12a1f859b3feae5fb2a0a32c18f5a65555bbf6000806101000a81548173ffffffffffffffffffffffffffffffffffffffff021916908373ffffffffffffffffffffffffffffffffffffffff1602179055506001905061256b565b60006125037351efaf4c8b3c9afbd5ab9f4bbc82784ab6ef8faa611dcf565b1115612566577351efaf4c8b3c9afbd5ab9f4bbc82784ab6ef8faa6000806101000a81548173ffffffffffffffffffffffffffffffffffffffff021916908373ffffffffffffffffffffffffffffffffffffffff1602179055506001905061256b565b600090505b90565b8060029080519060200190612584929190612608565b5050565b828054600181600116156101000203166002900490600052602060002090601f016020900481019282601f106125c957805160ff19168380011785556125f7565b828001600101855582156125f7579182015b828111156125f65782518255916020019190600101906125db565b5b5090506126049190612688565b5090565b828054600181600116156101000203166002900490600052602060002090601f016020900481019282601f1061264957805160ff1916838001178555612677565b82800160010185558215612677579182015b8281111561267657825182559160200191906001019061265b565b5b5090506126849190612688565b5090565b6126aa91905b808211156126a657600081600090555060010161268e565b5090565b905600a165627a7a72305820d68e20b2f6a6a26ed0494c5c013ec620beca40e85e45dba098d74a885c1e69d30029",
  "source": "pragma solidity ^0.4.24;\n\nimport \"oraclize-api/usingOraclize.sol\";\nimport \"./Evidencable.sol\";\n\ncontract YouTubeEvidences is usingOraclize {\n    string private constant HTML = \"html(https://www.youtube.com/watch?v=\";\n    string private constant XPATH = \").xpath(count(//div[contains(@id,'description')]//a[contains(@href,'\";\n\n    mapping(bytes32=>YouTubeEvidence) public evidences;\n\n    struct YouTubeEvidence {\n        address registry;\n        string evidencedId;\n        string videoId;\n        bool isPending;\n        bool isVerified;\n    }\n\n    event OraclizeQuery(string query);\n    event YouTubeEvidenceEvent(bytes32 evidenceId, bytes32 indexed evidencedIdHash, string videoId);\n\n    constructor() public {\n        // Just for local testing:\n        // OAR = OraclizeAddrResolverI(0x6f485C8BF6fc43eA212E93BBF8ce046C7f1cb475);\n    }\n\n    /// @notice Callback for the oracle for query `evidenceId` including the `properLinksCount\n    /// amount of links to the manifestation hash from the YouTube video description.\n    /// @dev There should be at least one proper link for the YouTubeEvidence to be verified.\n    /// @param evidenceId The identifier of the oracle query\n    /// @param properLinksCount The amount of proper links in the YouTube video description\n    function __callback(bytes32 evidenceId, string properLinksCount) public {\n        require(msg.sender == oraclize_cbAddress());\n        require(evidences[evidenceId].isPending);\n        if (parseInt(properLinksCount) > 0) {\n            evidences[evidenceId].isVerified = true;\n            Evidencable(evidences[evidenceId].registry)\n                .addEvidence(evidences[evidenceId].evidencedId);\n            emit YouTubeEvidenceEvent(evidenceId, keccak256(evidences[evidenceId].evidencedId),\n                evidences[evidenceId].videoId);\n        }\n        evidences[evidenceId].isPending = false;\n    }\n\n    /// @notice Check using an oracle if the YouTube `videoId` is linked to the manifestation `hash`.\n    /// @dev The oracle checks if the YouTube page for the video contains a link in its description\n    /// pointing to the manifestation hash.\n    /// @param registry The address of the contract holding the items evidenced\n    /// @param evidencedId The identifier used by the registry contract for the item receiving evidence\n    /// @param videoId The identifier of a YouTube video to be checked\n    function check(address registry, string evidencedId, string videoId) public payable returns (bytes32) {\n        require(oraclize_getPrice(\"URL\") > address(this).balance, \"Not enough funds to run Oraclize query\");\n        string memory query = strConcat(HTML, videoId, XPATH, evidencedId, \"')]))\");\n        bytes32 evidenceId = oraclize_query(\"URL\", query);\n        evidences[evidenceId] = YouTubeEvidence(registry, evidencedId, videoId, true, false);\n        return evidenceId;\n    }\n}\n",
  "sourcePath": "/Users/roberto/Proyectos/InVID/WP4/copyrightly.eth/contracts/YouTubeEvidences.sol",
  "compiler": {
    "name": "solc",
    "version": "0.4.24+commit.e67f0147.Emscripten.clang"
  },
  "schemaVersion": "2.0.1",
  "updatedAt": "2018-08-26T14:23:46.660Z"
}